:020000040800F2
:1000000000040020B9020008BB020008BB0200087F
:10001000BB020008BB020008BB020008BB020008CC
:10002000BB020008BB020008BB02000891140008D4
:10003000BB020008BB020008BB020008BB020008AC
:10004000BB020008BB020008BB020008BB0200089C
:10005000BB020008BB020008BB020008BB0200088C
:10006000BB020008BB020008BB020008BB0200087C
:10007000BB020008BB020008BB020008BB0200086C
:10008000BB020008BB020008BB020008BB0200085C
:10009000BB020008BB020008BB020008BB0200084C
:1000A000BB020008BB020008BB020008BB0200083C
:1000B000C10F0008BB020008BB020008BB02000819
:1000C000BB020008BB020008BB020008BB0200081C
:1000D000BB020008BB020008A10D0008BB0200081B
:1000E000BB020008BB020008BB020008BB020008FC
:1000F000BB020008BB020008BB020008BB020008EC
:10010000BB020008BB020008BB020008BB020008DB
:10011000BB020008BB020008BB020008BB020008CB
:10012000BB020008BB020008BB020008BB020008BB
:10013000BB020008BB020008BB020008BB020008AB
:10014000BB020008BB020008BB020008BB0200089B
:10015000BB020008BB020008BB020008BB0200088B
:10016000BB020008BB020008BB020008BB0200087B
:10017000BB020008BB020008BB020008BB0200086B
:10018000BB020008BB020008BB020008BB0200085B
:10019000BB020008BB020008BB020008BB0200084B
:1001A000BB020008BB020008BB020008BB0200083B
:1001B000BB020008BB020008BB020008BB0200082B
:1001C000BB020008BB020008BB020008BB0200081B
:1001D000BB020008BB020008BB020008BB0200080B
:1001E00072B6264880F30888254880F30988254898
:1001F00025490860022080F31488BFF36F8F00F058
:100200007FFD00F095FF4FF0553020491B4A914289
:100210003CBF41F8040BFAE71D49194A91423CBF23
:1002200041F8040BFAE71B491B4A1C4B9A423EBF9C
:1002300051F8040B42F8040BF8E700201849194A5A
:1002400091423CBF41F8040BFAE700F071FD00F069
:100250005FFD154C154DAC4203DA54F8041B88477A
:10026000F9E701F025F9124C124DAC4203DA54F8CB
:10027000041B8847F9E700F053BD0000000400208C
:10028000000800200000000808ED00E00000002049
:1002900000040020981A0008000800200008002030
:1002A00000080020A00C0020E0010008E001000888
:1002B000E0010008E001000892E700F000F8FEE726
:1002C0002DE9F04FC1F80CD0C3689D46BDE8F08F12
:1002D000002383F311882846A047002001F098F8F6
:1002E000FEE701F075F800DFFEE70000844641EA12
:1002F000000313F003036DD1403A41D351F8043B9E
:1003000040F8043B51F8043B40F8043B51F8043BEF
:1003100040F8043B51F8043B40F8043B51F8043BDF
:1003200040F8043B51F8043B40F8043B51F8043BCF
:1003300040F8043B51F8043B40F8043B51F8043BBF
:1003400040F8043B51F8043B40F8043B51F8043BAF
:1003500040F8043B51F8043B40F8043B51F8043B9F
:1003600040F8043B51F8043B40F8043B51F8043B8F
:1003700040F8043B51F8043B40F8043B403ABDD2FE
:10038000303211D351F8043B40F8043B51F8043BA0
:1003900040F8043B51F8043B40F8043B51F8043B5F
:1003A00040F8043B103AEDD20C3205D351F8043B2F
:1003B00040F8043B043AF9D2043208D0D2071CBFFB
:1003C00011F8013B00F8013B01D30B880380604624
:1003D000704700BF082A13D38B078DD010F003039A
:1003E0008AD0C3F10403D21ADB071CBF11F8013B0A
:1003F00000F8013B80D331F8023B20F8023B7BE759
:10040000043AD9D3013A11F8013B00F8013BF9D283
:100410000B7803704B7843708B788370604670471D
:10042000830730B548D0541E002A3FD0CAB20346D5
:1004300001E0013C3AD303F8012B9D07F9D1032CCD
:100440002DD9CDB245EA05250F2C45EA054536D90B
:10045000A4F1100222F00F0C03F1200EE6444FEA43
:10046000121C03F1100242E9045542E90255103210
:100470007245F8D10CF1010214F00C0F03EB0212DB
:1004800004F00F0C13D0ACF1040323F00303043386
:10049000134442F8045B9342FBD10CF003042CB1EB
:1004A000CAB21C4403F8012B9C42FBD130BD644608
:1004B0001346002CF4D1F9E703461446BFE71A4669
:1004C000A446E0E70000000000000000000000007B
:1004D000012914BF6FF013000020704700000000D6
:1004E000024AD36843F0C003D36070470044004021
:1004F000FEE700BF00000000000000000000000058
:10050000014B5B6883607047001000E00000000052
:100510000E4A0F4B81685B6810B4946802691B1B1C
:100520005B1AD218416902614268C46841F1000156
:100530009342026888BF436001349342C0E90234A9
:10054000416110BC38BF0360704700BFD00A002073
:10055000001000E0000000000000000000000000AB
:1005600010B4302383F311880B4B5C684942201A86
:1005700008401968821A8A4207D3944205D35A6008
:10058000002383F3118810BC70470020002383F3FD
:10059000118810BC704700BFC80A0020000000008E
:1005A000064B5A684942101A08401968884203D31A
:1005B000824201D35860704700207047C80A00206B
:1005C000284B1A69904230B40ED00268D0E9014538
:1005D000916822602944C2E9014100214FF0FF32B5
:1005E00001609A6130BC70471A46016842F8101FDA
:1005F00000254A6005601C6994422CD0A26881687D
:100600004FF0804C1144A160DCF82400DA69841AB0
:10061000A142E7D91C6A121A0A44A24238BF2246F4
:100620008118CCF83410DCF82410081A824298BFE4
:100630002046D7D801300A18CCF83420DCF8242022
:10064000511A81420BD28442CCD2DA6B186242F04A
:100650000102DA63C6E74FF08043DD60C2E711466E
:10066000E8E700BF8808002000000000000000004C
:10067000302383F311880B7F0C2B10D8DFE803F0B5
:10068000290F0F250B070F0B0F0F0F0F0B004A6BD6
:10069000936801339360D1E9003213605A6010B45B
:1006A00000224FF0FF340B6988684C630A771B689F
:1006B0009A688242FBD25A680020C1E90032116078
:1006C000596080F3118810BC70474B6B00221A6090
:1006D000E5E7002383F31188704700BF00000000A6
:1006E000F0B41C4C54F8043FA3422BD0002605E084
:1006F000BCF10B0F28D01B68A34223D0DA68024359
:10070000DA6010B11A691042F5D0D3E90121556CB5
:1007100092F81CC02943BCF10A0F5164E8D1556B13
:100720002942E8D0116997685663167709688D6881
:10073000BD42FBD21B684D68A342C2E900152A6086
:100740004A60DBD1F0BC7047556B35EA0101D2D16C
:10075000E8E700BF000800200000000000000000E3
:10076000184B70B403F11004D961C0E901421C694F
:10077000046060601C6A1861A2424FF0804038BF7C
:1007800022468D184563002505610225C560456A2E
:10079000A5EB010C944528BF264603D270BC7047D8
:1007A00029461546013631444163426A511BB14224
:1007B000F6D2B442F2D2DA6B1E6242F0010270BC91
:1007C000DA63704788080020000000000000000085
:1007D000F0B5284E33464FF0804C53F8102FDCF81C
:1007E00024709A423ED0F3699468FB1ACB1828BF54
:1007F0000B469C42054603D911E012681B1B946806
:100800009C42FAD35168AB60C5E900210D60916844
:100810005560CB1A4FF0FF319360B161F0BD306A83
:10082000814238BF014607EB010ECCF834E0DCF81A
:1008300024E0AEEB07078F4228BF0146E0D3013129
:100840000EEB0107CCF83470DCF82470A7EB0E0E29
:100850008E450DD28842D3D23162F16B41F0010155
:10086000F163CDE70A463946BDE8F040FFF778BFAF
:10087000BE46E4E7880800200000000000000000F9
:1008800070B5174C4B1CE66886B005461AD0154B60
:100890006846CDE9033600230593FFF799FFE16829
:1008A00020680D77036823605C6001230377E060B4
:1008B000FFF706FD009B13B16846FFF781FE706BE2
:1008C00006B070BD206835770368236001225C6044
:1008D00031460277E060FFF7F3FC706B06B070BD45
:1008E00088080020710600080000000000000000D9
:1008F0002DE9F04F83B0C769019299464FF0300A55
:100900008AF31188002A33D0DDF804B004460E467D
:10091000A268A169934522698CBFA5685D46A2EBD8
:100920000108A8454FD82AD2A5EB08034246304615
:100930000093FFF7DBFC06EB0800DDF80080E168C0
:100940004246FFF7D3FCE2684244A261A268521B10
:10095000A260FDB10FB12046B847002383F3118890
:10096000ABEB050B2E448AF31188BBF1000FCFD1FE
:100970000198002383F3118803B0BDE8F08F2A4665
:100980003046FFF7B3FCE268A261A268521BA26086
:10099000002DDFD1104BDA68B9F1000F0AD0616881
:1009A0000420C2E900410A6049466260FFF768FF1F
:1009B0000028ADD0019BA3EB0B00002383F311882B
:1009C00003B0BDE8F08F2A463046FFF78FFCA269DE
:1009D0002A44A261BAE700BF880800200000000096
:1009E0004FF0FF330C30FFF783BF00BF0000000063
:1009F0000C30FFF77DBF00BF0000000000000000CA
:100A000070B5302304460D4683F31188164E08E076
:100A10006268C3E9004213606360FFF731FF00289A
:100A200008DBA3682946042043B9F368002DEFD101
:100A30004FF0FF30002383F3118870BDA368A169D4
:100A4000013BA36023694A1C9A4228BFE368A26164
:100A50000D7828BFA361E3690BB1204698470023B6
:100A600083F31188284670BD88080020000000002C
:100A70004FF0FF310C30FFF7C3BF00BF0000000094
:100A80000C30FFF7BDBF00BF0000000000000000F9
:100A90002DE9F041302304460F46164683F31188B2
:100AA000DFF8608008E06568C3E900452B6063609B
:100AB000FFF7E6FE002809DBA3683146042053B99E
:100AC000D8F80C30002EEED14FF0FF30002383F326
:100AD0001188BDE8F0816269A368511C013B616126
:100AE000A3601770D4E904329A4224BFE3686361BB
:100AF000E3690BB120469847002080F31188BDE8D8
:100B0000F08100BF88080020000000000000000005
:100B10004FF0FF323030FFF7BBBF00BF00000000D6
:100B20003030FFF7B5BF00BF00000000000000003C
:100B30002DE9F04F83B0D0F81C80019299464FF018
:100B4000300A8AF3118882B3DDF804B004460F46F8
:100B5000A368D4E904609B458CBFA5685D46361A3E
:100B6000AE424DD828D232463946FFF7BFFBAA1B0A
:100B7000E0680092B919FFF7B9FBE368009A1344E3
:100B80006361A3685B1BA3600DB3B8F1000F01D0D4
:100B90002046C047002383F31188ABEB050B2F449D
:100BA0008AF31188BBF1000FD2D10198002383F39F
:100BB000118803B0BDE8F08F2A463946FFF796FB4F
:100BC000E3686361A3685B1BA360002DDDD1104B5C
:100BD000DB68B9F1000F0AD062684946C3E90042F8
:100BE000042013606360FFF74BFE0028B0D0019B28
:100BF000A3EB0B00002383F3118803B0BDE8F08F53
:100C00002A463946FFF772FB63692B446361B8E7F4
:100C10008808002000000000000000000000000024
:100C20004FF0FF333030FFF783BF00BF00000000FC
:100C30003030FFF77DBF00BF000000000000000063
:100C400080B5294C294AE368294DDFF8A890DFF8E0
:100C5000A8801A6286B0202730262B68002BFCD192
:100C6000A8F81A7086F31188E268059341F288317A
:100C70006846CDE90392FFF7ABFDE16820680823E1
:100C80000B770368236001225C600277E060FFF766
:100C900017FB009B68460BB1FFF792FC002282F322
:100CA0001188A8F8187086F31188E368059241F25C
:100CB00088316846CDE90393FFF78AFDE168206833
:100CC00008230B770368236001225C600277E060F1
:100CD000FFF7F6FA009B68460BB1FFF771FC0023A3
:100CE00083F31188B9E700BF88080020B81900080D
:100CF000800800207106000800000240000000008B
:100D0000704700BF0000000000000000000000006D
:100D1000704700BF0000000000000000000000005D
:100D2000FEE700BF0000000000000000000000001F
:100D3000F8B5154D154F16491648174A05F17004B8
:100D400081420DD9043A034652F8046F43F8046B0C
:100D50009942F9D84B1E1B1A23F00303043318449D
:100D6000874207D97A1E121A22F0030204320021A8
:100D7000FFF756FBA54205D0D5E90420D5E90617B3
:100D80001035DDE7F8BD00BFF0190008A00C002009
:100D9000A00C0020A00C0020981A00080000000001
:100DA0002DE9F8437D4D6E6F3368DA059CB200F192
:100DB0009280302383F3118814F02F0F57D0784F8F
:100DC0004FF0000808E0A406D6F804901ED433685B
:100DD00013F02F0F9CB24AD02307F4D014F0080F61
:100DE0000CBF00204FF48070E10748BF40F02000A6
:100DF000A20748BF40F04000630748BF40F08000B2
:100E0000FFF76EFCA406D6F80490E0D56B6995F860
:100E10007C40002B45D0D5E90832934248D06A691E
:100E2000591C013204EA090429626A611C70D5E97F
:100E300007329A4201D3AB692B62EB68BB42C6D042
:100E4000196898681A69E9604F60C3F8348083F8BC
:100E50001C80126891688142FBD25168C3E900216D
:100E60000B605360336813F02F0F9CB2B4D1002392
:100E700083F31188F36818069FB201D521064CD47C
:100E80007A0601D563061BD4F760302383F31188FB
:100E9000444B5B6813F400632BD183F31188BDE8E6
:100EA000F8830420FFF71CFCD5E908329342B6D141
:100EB0006A69002AB3D04FF40060FFF711FC86E79F
:100EC000302383F31188D5E911239A4252D00023AD
:100ED00083F31188D8E7302383F311884FF48060BF
:100EE000FFF7FEFB6FF480733360002383F31188F8
:100EF0005FE7EFF30983203B4FF08072DA6183F301
:100F00000988294A1168D2688968926891428CBF21
:100F1000264A274A9A61BDE8F883302383F3118873
:100F2000D5E911239A422FD0AA6B0132AA635A1C29
:100F3000AA6419782B6C9A4201D3EB6BAB642B6BD0
:100F40001C4A934211D018682863426000225A63F9
:100F50001A7798681A691268D2F808C08445FAD2DC
:100F600050681A605860036053607160002383F317
:100F7000118885E7AB6B002BA9D0102027F0400724
:100F8000FFF7AEFBBFB2A2E7AA6B002ACCD00820C5
:100F900027F08007FFF7A4FBBFB2E7E700080020B7
:100FA0000C08002000ED00E088080020E3020008A3
:100FB000E6020008300800200000000000000000E9
:100FC0002DE9F0474FF080463369F2681340DAB2FA
:100FD000D2439B0732610BD4302383F311884F4BEC
:100FE0005B6813F400635FD183F31188BDE8F08779
:100FF000302383F311884A4D4FF0000905F11007A3
:101000004FF030082C69EB69716AA268C81A9042E7
:1010100003EB020A34D3D4E90032C5F81CA01360F4
:101020005A60C4F800902B69BB4208BFC6F80C9008
:1010300089F31188D4E903312046984788F3118851
:101040006369002BDED0716AA1EB0A0083423FD3B3
:101050002A69BA4257D091688B4204D912685B1A48
:1010600091689942FAD3A36091682260CB1A5168C3
:1010700061600C60C2E901434FF0FF33AB61BFE731
:10108000BC420DD0286AE96113445B1A8342A36015
:1010900038BF0346CA187263726A511A8B4220D94C
:1010A000002383F3118897E7EFF30983203B4FF088
:1010B0008072DA6183F30988194A1168D2688968F5
:1010C000926891428CBF174A174A9A61BDE8F0872F
:1010D000EB6B2A6943F00203BA42EB6319D0034673
:1010E000B9E701464FF08043013154185C635C6AF4
:1010F000A21A8A420FD28842D2D2EB6B296243F005
:101100000103EB63CCE753445A1A2046FFF728FB50
:10111000C6E70022F9E72246E6E700BF00ED00E05F
:1011200088080020E3020008E60200080000000032
:101130008F4A90491369DFF840C243F0FF032DE95D
:10114000F04F13611069DFF83482DFF834E28D4F1D
:101150008D4E8E4DDFF838A220F0FF00106110692F
:10116000106B40F0FF001063106D40F0FF00002393
:1011700010656FF48A60146D4B6088608548C860A4
:101180004FF6DF7048614FF4EE4008624FF42A20BA
:101190004862814808604FF0FF344FF6FF7001F558
:1011A000E0514FF055394FF0800BC8F80430C8F8C3
:1011B0000840C8F80C90C8F81400C8F82030C8F8E7
:1011C0002430C8F800B0DFF8D481CEF80430CEF86F
:1011D0000840CEF80C80CEF81400CEF82030CEF8BF
:1011E0002430CEF80030CCF80430CCF80840CCF8ED
:1011F0000C90CCF81400CCF82030CCF82430CCF88B
:1012000000307B60BC60C7F80C9078613B627B6209
:101210003B607360B460C6F80C90706133627362B7
:1012200033606B60AC60C5F80C9068612B626B62D8
:101230002B604B608C605A4CCC6048610B624FF065
:1012400080504B620B604FF440431064CAF800308A
:10125000136843F00103136013689B07FCD5936880
:10126000434923F0030393608B6813F00C03FBD115
:101270000A683F4802F0F9020A608B600B6843F489
:10128000A0230B6003689F03FCD5436F384A43F0EB
:1012900001034367536F9E07FCD5424B53601368AD
:1012A0003B4943F0807313604B685D04FCD50B68C9
:1012B000374A43F480330B605368DC03FCD5136872
:1012C000334943F4003313604B689803FCD5284A34
:1012D00013689901FCD5344BC2F884301368244953
:1012E00043F0806313600B681A01FCD52F4BC1F8E3
:1012F00088300B681E4A43F080530B6013689B00D4
:10130000FCD52B4B2B4C2C4894604FF00061C2F85D
:101310008C00C2F894101A68284B9A421ED0284BB1
:1013200040F205721A60264A136803F00F03052B7A
:10133000FAD10F4A936843F002039360936803F075
:101340000C03082BFAD1536C43F480435364536E5F
:1013500043F480435366536EBDE8F08F194A1A4B2D
:1013600012689A42DBD1164B40F205121A60DAE796
:101370000038024000000240000C0240000402401D
:101380000008024000100240001402400018024011
:101390000070004005511564A004802A5555550180
:1013A00050555555085A4007043041440430034411
:1013B000002004E000940840030080001164002035
:1013C000003C024000ED00E041C20F41000000007F
:1013D0000C4A1068D168036810B401245A6004777D
:1013E000002413600C770B698C68D0601B689A68C6
:1013F000A242FBD85A6810BCC1E9003211605960A2
:10140000FEF75EBF8808002000000000000000001A
:1014100070B5302383F311881C4BD9688A6B4863FD
:1014200001F1380C944518BF4FF0000E11D18A7F9E
:101430001AB318680F220A7702681A604FF0010C7D
:10144000536080F81CC0BDE87040D860FEF738BF1C
:1014500022461468106996688C6382F81CE0006864
:101460008568B542FBD245681060644555602A60C6
:101470004260EDD18A7F002ADBD1CA6A002AD8D126
:10148000D1E9092002605060D3E700BF880800203E
:10149000EFF30983203383F30988002383F3118852
:1014A000704700BF000000000000000000000000C6
:1014B000B34BB4481A6962F0FF022DE980481A6103
:1014C0001A69D2B21A614FF0FF341A695A695C6125
:1014D00000215A6959615A691A6A62F080521A6287
:1014E0001A6A02F080521A621A6A5A6A5C625A6A6E
:1014F00059625A6A1A6C42F080521A641A6E42F0AB
:1015000080521A661A6E026842F4807202601A6F84
:1015100002F44072B2F5007F89B003D04FF48032FC
:101520001A6719679749984B4A68984E984F22F462
:10153000007270204A6083F81C034FF08052C02074
:10154000C3F8802140211A6083F8260306F10C00BD
:10155000C3F884115960C6E9030006F1540032460D
:10156000C6E90800B06106F130000023C6E90C00AE
:10157000884942F8041B10207361B06306F17400BF
:10158000306485487260F06406F164028348F26159
:101590000121C6E91122F2637067794A80483172ED
:1015A000B067106C36650843C6E90A361064106EE1
:1015B000084310667B48126E82680A4382604FF0CF
:1015C000804242F2273090624FF0FF30D062936148
:1015D0005363D360536051611160029039700020F1
:1015E0000021CDE90601C7E90133CDE903330593B5
:1015F000042502A8FEF784FFFEF78AFF013DF8D11B
:1016000069486A4C6A496B4A029B6160BB60091A6F
:10161000694B916069491962996302F11401C2E949
:10162000051104212060D961654C59636549D56174
:10163000C2E9035550601160634A226403F110024D
:101640001A6114229A6103F124025A6203F12802FA
:101650009A621C221A6303F13C02DA6303F140022E
:101660001A6403F14402C3E900339D605D61DD62E9
:101670007C60A5635A644FF0300C8CF3118862B61D
:10168000C4E93655514BA560E563E561D968C4F8F6
:10169000A4404FF6FF0211404D4A0A43C4E93055B9
:1016A000DA60D3F8FC204B4942F08072C3F8FC208A
:1016B0000A68202042F001020A60D87783F822C02D
:1016C0004FF0804304F110015B6A0193C4E90411F7
:1016D0008021C4F89C10C4F8E01004F1D001C4E9E2
:1016E00034113D49C4F8A8103C49C4F8AC103C4939
:1016F000C4F8B4104FF0FF31A16104F1CC01394BB3
:101700000198C4F8CC1004F194014FF00208E16094
:101710002946C4F82080C4E90A0103F58070E06519
:1017200004F17C00E06730486066012203F1DC00D0
:1017300004F1B80E04F1680A04EB0C012065A4F86A
:10174000B02084F8B220E264C4F8902084F86220CB
:101750002648274AC4F8E45004F1800B04F14409F8
:10176000C4E91C55C4E92255C4E920BBC4E91144AD
:10177000C4F8BC1087F80080C3F8DC00A16639E02B
:10178000003802400070004000E100E00008002046
:10179000D00A0020701A0008E1040008004400404C
:1017A00040A5AE02002004E0A00C0020C80A0020E2
:1017B00000000220DC0A0020800A0020A1050008A9
:1017C0008808002061050008DC19000800ED00E031
:1017D0000003FA05001000E00004002000080020CB
:1017E000C019000880090020C8190008F104000889
:1017F000D1020008C4F830E0C4F86CE0A365646569
:10180000C3F8E050C3F8FC20C4F8B8A0C4F834A072
:10181000A4F86050C4E9009985F311888CF311880D
:10182000337A012B09D15A4B1A6C42F400321A64F4
:101830001A6E42F400321A661B6E5649D6E91D3202
:1018400002F59642A1FB0212120B9A6040221A6125
:10185000012142F22C125961DA6000221A601868E4
:101860005B680220FF2386F87C30307282F3118897
:10187000494B83F85E114949C3F83C118021C3F8F4
:101880004811C3F88C1103F5BE71C3E95F114449D7
:10189000C3F860114349C3F81C1103F5D071C3F8B4
:1018A000581103F5BC71C3F8781103F58E71A3F8D4
:1018B0005C01C3E95443C3E95B22C3E96122C3F875
:1018C00020213020C3F84C1180F31188D3F8500147
:1018D000E168466BC3F8686103F5B27500F1300743
:1018E000C3F8647135604563D3F848618D68C3F807
:1018F0007421AE423FD90A770A691268906885421E
:10190000FBD350680A60486001605160012226489C
:1019100083F85C21E060FEF7D3FC002585F3118895
:10192000DFF88890DFF88880224F01263A69920418
:101930004FF0300358BFC9F8006083F31188E368A3
:10194000079541F2883102A8CDE90583FEF740FFF3
:10195000E168206808230B77036823605C600677E2
:10196000E060FEF7ADFC029B02A80BB1FEF728FE7B
:1019700085F31188DAE783F85C2100688268964273
:10198000FBD94268C3E95002074B13604360C4E7C8
:1019900000380240B5814E1B000B0020D102000828
:1019A000D0190008410C0008400C002080080020DD
:0819B000710600080008024066
:1019B800626C696E6B6572006D61696E0000000093
:1019C80069646C65000000006E6F6E616D650000F3
:1019D80063300000D8190008000400200008002027
:1019E80080090020800A0020981A0008A00C002016
:1019F800A00C0020A00C0020981A0008000000206D
:101A08000000002000000020981A000800000000D4
:101A18000000000000000000981A00080000000004
:101A28000000000000000000981A000800000000F4
:101A38000000000000000000981A000800000000E4
:101A48000000000000000000981A000800000000D4
:101A58000000000000000000981A000800000000C4
:101A6800000000000000000000000000210C000839
:101A7800E1090008110B0008710A0008210B000891
:101A8800810A0008310C0008F1090008D104000897
:04000005080002B934
:00000001FF
