:020000040800F2
:1000000000040020B9020008BB020008BB0200087F
:10001000BB020008BB020008BB020008BB020008CC
:10002000BB020008BB020008BB020008D16900083F
:10003000BB020008BB020008BB020008BB020008AC
:10004000BB020008BB020008BB020008BB0200089C
:10005000BB020008BB020008BB020008BB0200088C
:10006000BB020008BB020008BB020008BB0200087C
:10007000BB020008BB020008BB020008BB0200086C
:10008000BB020008BB020008BB020008BB0200085C
:10009000BB020008BB020008BB020008BB0200084C
:1000A000BB020008BB020008BB020008BB0200083C
:1000B00061200008BB020008BB020008BB02000868
:1000C000BB020008BB020008BB020008BB0200081C
:1000D000BB020008BB020008311E0008BB0200087A
:1000E000BB020008BB020008BB020008BB020008FC
:1000F000BB020008BB020008BB020008BB020008EC
:10010000BB020008BB020008BB020008BB020008DB
:10011000BB020008BB020008BB020008BB020008CB
:10012000BB020008BB020008BB020008BB020008BB
:10013000BB020008BB020008BB020008BB020008AB
:10014000BB020008BB020008BB020008BB0200089B
:10015000BB020008BB020008BB020008BB0200088B
:10016000BB020008BB020008BB020008BB0200087B
:10017000BB020008BB020008BB020008BB0200086B
:10018000BB020008BB020008BB020008BB0200085B
:10019000BB020008BB020008BB020008BB0200084B
:1001A000BB020008BB020008BB020008BB0200083B
:1001B000BB020008BB020008BB020008BB0200082B
:1001C000BB020008BB020008BB020008BB0200081B
:1001D000BB020008BB020008BB020008BB0200080B
:1001E00072B6264880F30888254880F30988254898
:1001F00025490860022080F31488BFF36F8F01F057
:10020000C7FD01F0E5FF4FF0553020491B4A9142F0
:100210003CBF41F8040BFAE71D49194A91423CBF23
:1002200041F8040BFAE71B491B4A1C4B9A423EBF9C
:1002300051F8040B42F8040BF8E700201849194A5A
:1002400091423CBF41F8040BFAE701F0B9FD01F01F
:10025000A7FD154C154DAC4203DA54F8041B884732
:10026000F9E70BF0F5F8124C124DAC4203DA54F8F2
:10027000041B8847F9E701F09BBD00000004002043
:10028000000800200000000808ED00E00000002049
:100290000004002018E1000800080020DC0800200D
:1002A000E008002000210020E0010008E001000833
:1002B000E0010008E001000892E700F000F8FEE726
:1002C0002DE9F04FC1F80CD0C3689D46BDE8F08F12
:1002D000002383F311882846A047002005F068FC1E
:1002E000FEE702F08DF900DFFEE70000032A10B5FB
:1002F00017D940EA010C1CF0030F04460B4623D12A
:1003000019462046D1F800E0D0F800C0F44504F1C9
:10031000040403F1040317D1043A032A20461946C2
:10032000EED8541EA2B100F1FF3C013901E0C31820
:100330000CD01CF801EF11F8012F9645A4EB0C032B
:10034000F5D0AEEB020010BD541EECE7184610BD10
:10035000104610BD844641EA000313F003036DD13B
:10036000403A41D351F8043B40F8043B51F8043B78
:1003700040F8043B51F8043B40F8043B51F8043B7F
:1003800040F8043B51F8043B40F8043B51F8043B6F
:1003900040F8043B51F8043B40F8043B51F8043B5F
:1003A00040F8043B51F8043B40F8043B51F8043B4F
:1003B00040F8043B51F8043B40F8043B51F8043B3F
:1003C00040F8043B51F8043B40F8043B51F8043B2F
:1003D00040F8043B51F8043B40F8043B51F8043B1F
:1003E00040F8043B403ABDD2303211D351F8043BBF
:1003F00040F8043B51F8043B40F8043B51F8043BFF
:1004000040F8043B51F8043B40F8043B103AEDD26D
:100410000C3205D351F8043B40F8043B043AF9D2BE
:10042000043208D0D2071CBF11F8013B00F8013B91
:1004300001D30B8803806046704700BF082A13D39E
:100440008B078DD010F003038AD0C3F10403D21AB6
:10045000DB071CBF11F8013B00F8013B80D331F8EA
:10046000023B20F8023B7BE7043AD9D3013A11F86A
:10047000013B00F8013BF9D20B7803704B784370D5
:100480008B78837060467047830730B548D0541E20
:10049000002A3FD0CAB2034601E0013C3AD303F838
:1004A000012B9D07F9D1032C2DD9CDB245EA0525A5
:1004B0000F2C45EA054536D9A4F1100222F00F0CA5
:1004C00003F1200EE6444FEA121C03F1100242E948
:1004D000045542E9025510327245F8D10CF101027F
:1004E00014F00C0F03EB021204F00F0C13D0ACF15C
:1004F000040323F003030433134442F8045B9342E0
:10050000FBD10CF003042CB1CAB21C4403F8012B3C
:100510009C42FBD130BD64461346002CF4D1F9E770
:1005200003461446BFE71A46A446E0E70000000071
:1005300000000000000000000000000000000000BB
:10054000A2EB0300704700BF02780B78012A28BF96
:100550009A42F5D16DE9044540EA0104CDE902670C
:100560006FF0000C4FEA447212B380EA010414F0F9
:10057000070F6AD100F0070420F0070004F003051C
:1005800021F007014FEAC505F0E8042314F0040F39
:10059000F1E804670CFA05F462EA040266EA04066C
:1005A0000AD063EA0403624667EA0407664603E08A
:1005B000F0E80423F1E8046782FA4CF582EA0604C5
:1005C000A4FA8CF46CBB83FA4CF583EA0705A5FA10
:1005D0008CF595B950E9022351E9026782FA4CF58E
:1005E00082EA0604A4FA8CF483FA4CF583EA070540
:1005F000A5FA8CF52543DBD09CB92DBAB5FA85F464
:1006000024F0070427FA04F1DDE9026723FA04F372
:1006100003F0FF0001F0FF01FDE80445A0EB01003D
:10062000704724BAB4FA84F424F0070426FA04F1DB
:10063000DDE9026722FA04F202F0FF0001F0FF0197
:10064000FDE80445A0EB0100704714F0030F3CD116
:1006500010F0030428D150F8082B51F8083B82FA17
:100660004CF582EA0305A5FA8CF55DB950F8042C27
:1006700051F8043C82FA4CF582EA0305A5FA8CF5A0
:10068000002DE8D02DBAB5FA85F424F0070423FA3A
:1006900004F122FA04F202F0FF0001F0FF01FDE88C
:1006A0000445A0EB010070474FEAC40420F00300AA
:1006B00050F8082B21F0030151F8083B0CFA04F420
:1006C00062EA040263EA0403C9E710F003041AD0E3
:1006D000A1EB040120F00300E40750F8042B06D03E
:1006E0000FD28B785FFAA2F4E41A06D12BB1CB7843
:1006F0005FFAB2F4E41A00D11BB920465DF8104B42
:10070000704701F1040150F8042BCC0721F00301DC
:1007100051F8043B48D824D222F07F4482FA4CF5A9
:1007200094EA1325A5FA8CF50AD165B951F8043B72
:1007300084EA0204B4EB036F0ED150F8042BEBE70C
:100740004FEA132355E035F07F454DD10878FDE899
:100750000445C0F1000070474FEA126203F0FF0346
:1007600047E002EA1C4482FA4CF594EA1345A5FAE4
:100770008CF50AD165B951F8043B84EA0204B4EB64
:10078000034F0CD150F8042BEBE74FEA134330E052
:1007900015EA1C4528D10B884FEA124229E04FEA9E
:1007A000124203EA1C4324E002F0FF0482FA4CF5F3
:1007B00094EA1365A5FA8CF50AD165B951F8043BA2
:1007C00084EA0204B4EB032F09D150F8042BEBE7C1
:1007D0004FEA13630DE015F0FF0F05D10B684FEAE8
:1007E000122223F07F4304E04FF00000FDE80445AF
:1007F000704712BA1BBA82FA4CF482EA0304A4FAD4
:100800008CF5B5FA85F402FA04F203FA04F34FEA20
:100810001260FDE80445A0EB13607047A2B330B549
:1008200040EA0104A40784460B462AD09CF8000045
:100830000C7884422FD1012A0DD0E64660B11EF813
:10084000010F11F8014F6FEA0E03A042134422D1A9
:100850001CEB0303F2D1002030BD0468194653F8A5
:10086000045BA4F1013EAC4284462EEA040E00F182
:1008700004000BD1043A84461946ECD01EF0803FA8
:10088000E9D1032AE9D8D1E7104670479CF8000067
:100890000C78A042D1D0001B30BD00BF000000008A
:1008A000012914BF6FF01300002070470000000002
:1008B000024AD36843F0C003D3607047004400404D
:1008C000FEE700BF00000000000000000000000084
:1008D000036B4269302181F311881968116000218E
:1008E0001A6081F3118870470000000000000000CA
:1008F00010B4302383F311880B4B5C684942201AF3
:1009000008401968821A8A4207D3944205D35A6074
:10091000002383F3118810BC70470020002383F369
:10092000118810BC704700BFA00A00200000000022
:1009300003681A1D02601B68184700BF0000000012
:10094000016803460A46081D10B4186052F8084BA7
:1009500048681A60234610BC184700BF000000001A
:10096000026830B40346111D50681960146891681C
:1009700002F10C051D60234630BC18470000000042
:10098000036830B402461C1DD3E9010114601C68E1
:1009900003F110051560DA68234630BC184700BF24
:1009A000036830B484461C1DD3E90101DA68CCF831
:1009B00000401C6803F11405CCF800501B69A446E4
:1009C00030BC604700000000000000000000000094
:1009D000064B5A684942101A08401968884203D3E6
:1009E000824201D35860704700207047A00A00205F
:1009F000044B10B50446586A0368E1B2DB689847B7
:100A0000204610BDB40A00200000000000000000D5
:100A100070B40D4D05F11006EC68334605E013F88F
:100A200001CB10F8012B944506D19C42F7D80078F1
:100A300010B9EE6070BC704740F20113AB80A96042
:100A4000012070BC704700BFB40A00200000000005
:100A500010B4424C01232360302383F311884049B2
:100A60000A688A4263D0002312688A4203F10103B4
:100A7000FAD14A688A4246D052688A4203F1FF336B
:100A8000FAD1002B3FD1002383F311880222226088
:100A9000302282F3118833480A6982424DD01268AD
:100AA000824203F10103FAD14A69824235D0526889
:100AB000824203F1FF33FAD17BBB002383F3118819
:100AC00003222260302282F3118827480A6B824277
:100AD00040D01268824203F10103FAD14A6B82428C
:100AE0002FD05268824203F1FF33FAD14BBB00236F
:100AF00083F3118804222260302282F3118883F369
:100B0000118810BC7047002383F31188174BA36032
:100B100040F20112A28010BC7047002383F31188B9
:100B2000134BA36040F20112A28010BC70474A68C8
:100B30008A4218BF00239FD1A5E74A698242B6D1F5
:100B4000BBE7002383F311880A4BA36040F2011234
:100B5000A280E0E74A6B8242C3D1C8E7B40A002012
:100B6000B8090020C8090020E809002054B900088D
:100B70006CB9000890B900080000000000000000F7
:100B8000074B01221A60302383F3118862B672B6D4
:100B900083F3118862B6002383F3118862B670472D
:100BA000B40A002000000000000000000000000067
:100BB000044B01214FF080421960516A536A9942F7
:100BC000FCD07047B40A00200000000000000000C4
:100BD000014B03221A607047B40A00200000000095
:100BE000054BDA6803F120018A4203D20178501CD8
:100BF000D8601170704700BFB40A002000000000E8
:100C0000014B00221A6070475817002000000000B6
:100C1000024B0122C3E900339A6070470C0D00209B
:100C2000024B0022C3E900339A6070470C0D00208C
:100C3000024B0022C3E900339A6070470C0D00207C
:100C4000024B0022C3E900339A6070470C0D00206C
:100C5000024B0022C3E900339A6070470C0D00205C
:100C6000024B0022C3E900339A6070472C08002031
:100C7000024B0022C3E900339A6070472C08002021
:100C8000044A054B0021C2E90022C3E90033916008
:100C9000996070472C0800203C08002000000000EC
:100CA000044B054A0021C2E90022C3E900339960E0
:100CB000704700BF2C080020000800200000000042
:100CC000044B054A0021C2E90022C3E900339960C0
:100CD000704700BF2C080020000800200000000022
:100CE000064A074B07490020C1E90011C2E900226A
:100CF000C3E9003390609860704700BF2C08002063
:100D00003C08002000080020000000000000000057
:100D1000054BDA6803F120018A4203D2501C4121BD
:100D2000D8601170704700BFB40A002000000000B6
:100D3000054BDA6803F120018A4203D2501C42219C
:100D4000D8601170704700BFB40A00200000000096
:100D5000054BDA6803F120018A4203D2501C43217B
:100D6000D8601170704700BFB40A00200000000076
:100D7000F0B4394A394C126002278AB0276030201B
:100D800080F31188364D13680593EB6806930126AE
:100D90000023CDE9076305A94FF0FF3611600996DE
:100DA00083F3118880F31188ED680195156800952B
:100DB0006D46029704960393156083F3118880F3C0
:100DC00011881668964237D083F311880323236075
:100DD00080F31188134601E08B4237D018461B6818
:100DE0009342F9D1002383F31188302181F31188D4
:100DF0001068904220D083F311880423236081F38C
:100E00001188154B01E0AB4223D019461B68934271
:100E1000F9D1002383F31188302181F311881168FF
:100E200091421FBF0F4AA26040F20111A18083F3DB
:100E300011880AB0F0BC70470B4AA26040F2011161
:100E4000A18083F311880AB0F0BC7047059B036052
:100E5000C8E7009B0B60DCE708080020B40A00200C
:100E6000B8090020B8B90008ACB9000800000000BB
:100E7000302383F31188034AD2680023536483F339
:100E800011887047B8090020000000000000000031
:100E9000F8B50F4B0F4E01271F600725002425FAD8
:100EA00004F313F0010F07FA04F220460DD056F8B0
:100EB000243025EA020501349847002DEFD1BDE822
:100EC000F84005490548FFF7A3BD0134E7E700BF37
:100ED000B40A002070CC0008C8B90008DCB90008CA
:100EE000302383F31188034AD2680023536483F3C9
:100EF00011887047B80900200000000000000000C1
:100F0000302383F31188034AD2680023536483F3A8
:100F100011887047B80900200000000000000000A0
:100F2000302383F31188034AD2680023536483F388
:100F300011887047B8090020000000000000000080
:100F4000302383F31188034AD2680023536483F368
:100F500011887047B8090020000000000000000060
:100F6000302383F31188054AD2680023536483F346
:100F70001188034A034B12601B607047B8090020B8
:100F8000080800200C0800200000000000000000FD
:100F9000054BDA6803F120018A4203D20178501C24
:100FA000D8601170704700BFB40A00200000000034
:100FB0000C4B0D4AD91D21F00701CB1AC3F515635F
:100FC00008330020DB08C2E9031010600860D0611C
:100FD0004B600133DB00936002F11403C2E9053377
:100FE00051607047400D0020440B002000000000BD
:100FF000044B00224FF4F0700421C3E90020C3E940
:1010000002127047DC0B002000000000000000000E
:10101000704700BF0000000000000000000000005A
:10102000024B0022C3E900339A607047180D00207C
:10103000024B0122C3E900339A607047180D00206B
:10104000024B0022C3E900339A607047FC0B00207A
:1010500030B40A4B0A4A002402F1100503F11800CB
:1010600003F12001C3E900251C611C75C3E90222BC
:1010700030BCC3E90600C3E9081170474C080020E2
:10108000CC0B002000000000000000000000000069
:1010900030B40A4B0A4A002402F1100503F118008B
:1010A00003F12001C3E900251C611C75C3E902227C
:1010B00030BCC3E90600C3E9081170474C080020A2
:1010C000CC0B002000000000000000000000000029
:1010D00030B40A4B0A4A002402F1100503F118004B
:1010E00003F12001C3E900251C611C75C3E902223C
:1010F00030BCC3E90600C3E9081170474C08002062
:10110000CC0B0020000000000000000000000000E8
:1011100030B40F490F4B01F110050022C3E900154F
:1011200003F12004C3E9021103F1300003F140018F
:10113000C3E90844C3E9062230BCC3E90C00C3E993
:1011400010111A611A759A629A639A64704700BF07
:10115000600900208408002000000000000000005A
:1011600030B40F490F4B01F108050022C3E9001507
:1011700003F12004C3E9021103F1300003F140013F
:10118000C3E90844C3E9062230BCC3E90C00C3E943
:1011900010111A611A759A629A639A64704700BFB7
:1011A000600900208408002000000000000000000A
:1011B000064BDA6803F120018A4203D2501C302129
:1011C000D860117045F2AA50704700BFB40A0020E1
:1011D000044BDA6803F120018A4202D2511CD96023
:1011E00010707047B40A00200000000000000000EA
:1011F000094BDA6803F1200C62450CD210B4541C80
:10120000DC601070DA686245C9B202D2541CDC603E
:10121000117010BC70477047B40A00200000000035
:101220000C4B30B4DC6803F1200C644510D2651C13
:10123000DD602070DC686445C9B209D2651CDD60E0
:101240002170D9686145D2B202D24C1CDC600A70B0
:1012500030BC7047B40A002000000000000000000D
:1012600070B4104CE56804F1200C654517D26E1C73
:10127000E6602870E5686545C9B210D26E1CE6606C
:101280002970E1686145D2B209D24D1CE5600A704F
:10129000E2686245DBB202D2511CE160137070BC9F
:1012A000704700BFB40A00200000000000000000EA
:1012B000074BDA6803F120018A4203D2501C5A21FD
:1012C000D8601170034B01221A704AF655207047FE
:1012D000B40A0020000B0020000000000000000005
:1012E000064BDA6803F12000824204D24969501C9F
:1012F0004131D86011700020704700BFB40A00204F
:101300000020704700000000000000000000000006
:10131000034B00220421C3E90021C3E902127047F4
:101320007408002000000000000000000000000021
:101330002DE9F0415D4F5E4B5E4C01223A60302555
:101340000422002085F3118821681960236080F34E
:1013500011886168013A0B44F4D102233B600426F2
:101360004FF03008154688F311882068002870D0A7
:101370000368236085F31188002863D0013EF2D111
:1013800003233B60302383F311882068002872D048
:1013900003682360002383F31188002864D1444B41
:1013A00004223A6003F11006302500201A4685F326
:1013B0001188216843F8041B226080F311889E4243
:1013C000F4D105233B60042530264FF0000886F356
:1013D00011882068002831D00368236088F31188C1
:1013E00000282FD0013DF2D106233B60302383F348
:1013F00011882068002844D003682360002383F309
:101400001188002830D12C4A07210423396000219B
:10141000C4E90013C4E90232302383F31188206841
:10142000002834D003682360002383F3118870B14F
:10143000224BBB6040F20112BA8008E0E3687BB93E
:1014400083F311881E4BBB6040F20112BA80BDE8E5
:10145000F081E368002BF3D0D4E90101984789E7D4
:10146000D4E901019847B9E7164BBB6040F201127D
:10147000BA80BDE8F081E3687BB1D4E90101984707
:1014800088E7E36863B1D4E901019847B6E7E36808
:101490004BB1D4E901019847C6E786F311887EE78E
:1014A00085F31188AFE783F31188D0E7B40A0020F1
:1014B000FC0C00207408002001130008FCB900088F
:1014C000E0B90008ECB900080000000000000000CE
:1014D000054B00220421C3E90321C3E90512C3E936
:1014E00000339A60704700BF100800200000000021
:1014F000054B00220421C3E90321C3E90512C3E916
:1015000000339A60704700BF100800200000000000
:101510000C4B0D4AD91D21F00701CB1AC3F17803FA
:101520000020DB08C2E9031010600860D0614B6046
:101530000133DB00936002F11403C2E9053351600B
:10154000704700BFC4160020A01600200000000055
:10155000302383F311880B7F0C2B10D8DFE803F0C6
:10156000290F0F250B070F0B0F0F0F0F0B004A6BE7
:10157000936801339360D1E9003213605A6010B46C
:1015800000224FF0FF340B6988684C630A771B68B0
:101590009A688242FBD25A680020C1E90032116089
:1015A000596080F3118810BC70474B6B00221A60A1
:1015B000E5E7002383F31188704700BF00000000B7
:1015C00083680133002B836000DD7047036810B42B
:1015D0001C681A6904600021606098685963197773
:1015E000126891688142FBD2516810BCC3E90021A6
:1015F0000B605360704700BF000000000000000057
:10160000174B026810B4DC68C368A364824223D01D
:10161000E16C4BB11A68934203D09268914238BF93
:101620001146DB68002BF5D1A16003689C6C1A6839
:10163000026000215060C0E902341A699C68986415
:10164000197712689168A142FBD2516810BCC3E9B6
:1016500000210B6053607047002310BC93607047FB
:10166000B809002000000000000000000000000099
:101670000368984233D0F0B4002605E0BCF10B0FAC
:1016800028D01B68984223D0DA680A43DA6011B187
:101690001A691142F5D0D3E90124556C92F81CC0A7
:1016A0002C43BCF10A0F5464E8D1556B2C42E8D0AE
:1016B00014699768566316772468A568BD42FBD203
:1016C0001B6865689842C2E900452A606260DBD108
:1016D000F0BC7047556B35EA0404D2D1E8E7704797
:1016E00038B51C4B0446DA68302181F31188017F3C
:1016F0000F290ED0806BD96810600920A26308778B
:10170000186802681A60536001220277D860FEF7F9
:10171000D7FD656B002282F31188302383F3118893
:10172000A37F013BA377E36903F0FF130F2B03D0E3
:1017300082F31188284638BDD4E909310B6059601D
:1017400082F31188E36A002BF4D02046984728469C
:1017500038BD00BFB80900200000000000000000F4
:1017600070B5074C002604F1140554F8040B18B1A9
:10177000FFF7B6FF44F8046CAC42F6D170BD00BF71
:1017800044170020000000000000000000000000DE
:1017900070B5074C002604F1140554F8040B18B179
:1017A000FFF79EFF44F8046CAC42F6D170BD00BF59
:1017B00044170020000000000000000000000000AE
:1017C00070B5074C002604F1140554F8040B18B149
:1017D000FFF786FF44F8046CAC42F6D170BD00BF41
:1017E000441700200000000000000000000000007E
:1017F00010B5302383F311880F4BD96818688A68B5
:101800008468944213D304681C60636001240477E5
:10181000D86000240B690C771B689C68A242FBD936
:101820005A68C1E9003211605960FEF749FD002392
:1018300083F3118810BD00BFB8090020000000002C
:1018400038B5174B3022DC6882F31188026C626075
:1018500000F13C05256061631460027F04640E2A78
:1018600010D0D96818680C220A7702681A60536091
:1018700001220277D860FEF723FD606B002383F31B
:10188000118838BD00210269856801771268916866
:10189000A942FBD25168C0E9002108605060E0E72E
:1018A000B809002000000000000000000000000057
:1018B00010B541210446FFF7C3FF42212046FFF740
:1018C000BFFF43212046FFF7BBFF20464421BDE870
:1018D0001040FFF7B5BF00BF00000000000000008F
:1018E00010B53023044683F31188154A9368013BF1
:1018F000002B93600DDB002383F31188114BDA6812
:1019000003F120018A4203D22178501CD860117063
:1019100010BD0D4B5068D9684FF0050CC1E900208F
:101920004A630160186881F81CC0516002681A603F
:10193000536001220277D860FEF7C2FCDBE700BFEC
:101940000C0D0020B40A0020B8090020000000009F
:1019500070B5302383F311881C4BD9688A6B4863B8
:1019600001F1380C944518BF4FF0000E11D18A7F59
:101970001AB318680F220A7702681A604FF0010C38
:10198000536080F81CC0BDE87040D860FEF798BC7A
:1019900022461468106996688C6382F81CE000681F
:1019A0008568B542FBD245681060644555602A6081
:1019B0004260EDD18A7F002ADBD1CA6A002AD8D1E1
:1019C000D1E9092002605060D3E700BFB8090020C8
:1019D000F8B50C4C3023E76883F311880326012502
:1019E000E16820680E77036823605C600577E0603B
:1019F000FEF766FC7B6B002BF2D0002383F311888B
:101A0000F8BD00BFB8090020000000000000000081
:101A10002DE9F041164FFB6893F91D30002B25DBB3
:101A2000144C4FF030080526012507E0002383F30E
:101A30001188FB6893F91D30002B17DB88F31188A0
:101A4000A368013B002BA360F0DAF968636838688B
:101A50004C63C1E9004319600E77036861605F6001
:101A600005773B60F860FEF72BFCDFE7BDE8F0810F
:101A7000B8090020180D0020000000000000000040
:101A80002DE9F041194C054630274FF0010800269A
:101A900087F31188E16820688A688368934213D3CA
:101AA000036823605C6080F81C800B69E0600E773F
:101AB0001B68D3F808C06245FAD95A68C1E90032F8
:101AC00011605960FEF7FCFB86F31188FFF790FE6A
:101AD000FFF78EFEFFF78CFE2B68E26804332B6065
:101AE00092F91D30002BD3DABDE8F081B80900204F
:101AF0000EB410B585B007AB01AA53F8044B03929E
:101B000002A9CDE90134FFF79BFE05B0BDE8104006
:101B100003B070470000000000000000000000005B
:101B20000148002109F0ECB80C0D00200000000075
:101B30002DE9F041514B524F524A534D012139602A
:101B400003F10C063024002084F311882968116009
:101B50002A6080F311889E4202D053F8042BF3E7E9
:101B60004A4B4B4AD9684B488E684B4C0323711E35
:101B70003B6009F01DF8B11E484A2060484809F052
:101B800017F8F11E474A6060474809F011F8311F05
:101B9000464AA060464809F00BF8711FE060454ACC
:101BA000454809F005F806462061206804233B609B
:101BB000A0B1636893B1A36883B1E36873B1002EE9
:101BC00045D105233B6004F1100810B1FFF788FDF3
:101BD0002660444509D054F8040FF6E7374BBB6044
:101BE00040F20112BA80BDE8F08135493548FEF770
:101BF0000FFF06460028F6D106233B6004244FF071
:101C0000300888F31188286840B303682B6086F396
:101C10001188A8B1013CF4D1302383F311882868DE
:101C200018B303682B60002383F311880028DAD0EF
:101C3000254BBB6040F20112BA80D4E783F31188D0
:101C4000224BBB6040F20112BA80BDE8F081204B0C
:101C5000BB6040F20112BA80BDE8F081EB68002B56
:101C6000ECD0D5E901019847D1E7EB681BB1D5E984
:101C700001019847D7E784F31188B4E714CD000831
:101C8000B40A0020400D0020DC0B0020B809002021
:101C900018BA00081CBA00084417002024BA00082B
:101CA00028BA000830BA000834BA00083CBA000864
:101CB00040BA0008B0BC000848BA000898BA00084A
:101CC000C8B900086CBA000884BA000874BA0008E1
:101CD00050BA0008000000000000000000000000F2
:101CE00008F00EBF0000000000000000000000002F
:101CF00008F006BF00000000000000000000000027
:101D000008F0FEBE0000000000000000000000001F
:101D100030B51B4C1B4D237D012285B02A6053B189
:101D20002268E368934213D0174BAB6040F2011274
:101D3000AA8005B030BD1021684609F081F900285D
:101D4000EED0124BAB6040F20112AA8005B030BD5C
:101D5000A2689342E8D12369002BE5D10223102029
:101D60002B6009F0E5F80828EBD1D4E9022393426F
:101D7000DAD122689342D7D12369082BD4D1D8E78E
:101D800084080020B40A0020BCBA0008B0BA0008D9
:101D9000704700BF000000000000000000000000CD
:101DA000704700BF000000000000000000000000BD
:101DB000FEE700BF0000000000000000000000007F
:101DC000F8B5154D154F16491648174A05F1700418
:101DD00081420DD9043A034652F8046F43F8046B6C
:101DE0009942F9D84B1E1B1A23F0030304331844FD
:101DF000874207D97A1E121A22F003020432002108
:101E0000FEF742FBA54205D0D5E90420D5E9061727
:101E10001035DDE7F8BD00BF90CC000800210020A0
:101E20000021002000210020F4E100080000000053
:101E30002DE9F843804D6E6F3368D8059CB200F1F0
:101E40009480302383F3118814F02F0F59D07B48EE
:101E50004FF0000800F1080708E0A406D6F8049047
:101E60001ED4336813F02F0F9CB24AD02207F4D04F
:101E700014F0080F0CBF00214FF48071E30748BF36
:101E800041F02001A20748BF41F04001630748BF6D
:101E900041F08001FFF7ECFBA406D6F80490E0D5F2
:101EA0006B6995F87C40002B45D0D5E90832934208
:101EB00048D06A69591C013204EA090429626A613E
:101EC0001C70D5E907329A4201D3AB692B62EB68EB
:101ED000BB42C6D019689C681A69E9604F60C3F8B4
:101EE000348083F81C8012689168A142FBD251684B
:101EF000C3E900210B605360336813F02F0F9CB2CD
:101F0000B4D1002383F31188F36818069FB201D57A
:101F100021064DD47A0601D563061BD4F760302321
:101F200083F31188464B5B6813F400632CD183F371
:101F30001188BDE8F8830421FFF79AFBD5E9083240
:101F40009342B6D16A69002AB3D04FF40061FFF71B
:101F50008FFB86E7302383F31188D5E911239A425A
:101F600053D0002383F31188D8E7302383F31188FB
:101F70004FF48061281DFFF77BFB6FF480733360A3
:101F8000002383F311885CE7EFF30983203B4FF0D4
:101F90008072DA6183F309882A4A1168D2688968F5
:101FA000926891428CBF284A284A9A61BDE8F8831A
:101FB000302383F31188D5E911239A4230D0AA6BDC
:101FC0000132AA635A1CAA6419782B6C9A4201D375
:101FD000EB6BAB642B6B1E4A934211D018682863DD
:101FE000426000225A631A7798681A691268D2F818
:101FF00008C08445FAD250681A6058600360536084
:102000007160002383F3118884E7AB6B002BA8D0A9
:102010000A48102127F04007FFF72AFBBFB2A0E7CC
:10202000AA6B002ACBD00548082127F08007FFF7CC
:102030001FFBBFB2E5E700BFE0080020E408002076
:1020400000ED00E0B8090020E3020008E602000805
:102050001009002000000000000000000000000047
:102060002DE9F0474FF080463369F2681340DAB249
:10207000D2439B0732610BD4302383F311884F4B3B
:102080005B6813F400635FD183F31188BDE8F087C8
:10209000302383F311884A4D4FF0000905F11007F2
:1020A0004FF030082C69EB69716AA268C81A904237
:1020B00003EB020A34D3D4E90032C5F81CA0136044
:1020C0005A60C4F800902B69BB4208BFC6F80C9058
:1020D00089F31188D4E903312046984788F31188A1
:1020E0006369002BDED0716AA1EB0A0083423FD303
:1020F0002A69BA4257D091688B4204D912685B1A98
:1021000091689942FAD3A36091682260CB1A516812
:1021100061600C60C2E901434FF0FF33AB61BFE780
:10212000BC420DD0286AE96113445B1A8342A36064
:1021300038BF0346CA187263726A511A8B4220D99B
:10214000002383F3118897E7EFF30983203B4FF0D7
:102150008072DA6183F30988194A1168D268896844
:10216000926891428CBF174A174A9A61BDE8F0877E
:10217000EB6B2A6943F00203BA42EB6319D00346C2
:10218000B9E701464FF08043013154185C635C6A43
:10219000A21A8A420FD28842D2D2EB6B296243F054
:1021A0000103EB63CCE753445A1A204608F0D8FDEC
:1021B000C6E70022F9E72246E6E700BF00ED00E0AF
:1021C000B8090020E3020008E60200080000000051
:1021D0008F4A90491369DFF840C243F0FF032DE9AD
:1021E000F04F13611069DFF83482DFF834E28D4F6D
:1021F0008D4E8E4DDFF838A220F0FF00106110697F
:10220000106B40F0FF001063106D40F0FF000023E2
:1022100010656FF48A60146D4B6088608548C860F3
:102220004FF6DF7048614FF4EE4008624FF42A2009
:102230004862814808604FF0FF344FF6FF7001F5A7
:10224000E0514FF055394FF0800BC8F80430C8F812
:102250000840C8F80C90C8F81400C8F82030C8F836
:102260002430C8F800B0DFF8D481CEF80430CEF8BE
:102270000840CEF80C80CEF81400CEF82030CEF80E
:102280002430CEF80030CCF80430CCF80840CCF83C
:102290000C90CCF81400CCF82030CCF82430CCF8DA
:1022A00000307B60BC60C7F80C9078613B627B6259
:1022B0003B607360B460C6F80C9070613362736207
:1022C00033606B60AC60C5F80C9068612B626B6228
:1022D0002B604B608C605A4CCC6048610B624FF0B5
:1022E00080504B620B604FF440431064CAF80030DA
:1022F000136843F00103136013689B07FCD59368D0
:10230000434923F0030393608B6813F00C03FBD164
:102310000A683F4802F0F9020A608B600B6843F4D8
:10232000A0230B6003689F03FCD5436F384A43F03A
:1023300001034367536F9E07FCD5424B53601368FC
:102340003B4943F0807313604B685D04FCD50B6818
:10235000374A43F480330B605368DC03FCD51368C1
:10236000334943F4003313604B689803FCD5284A83
:1023700013689901FCD5344BC2F8843013682449A2
:1023800043F0806313600B681A01FCD52F4BC1F832
:1023900088300B681E4A43F080530B6013689B0023
:1023A000FCD52B4B2B4C2C4894604FF00061C2F8AD
:1023B0008C00C2F894101A68284B9A421ED0284B01
:1023C00040F205721A60264A136803F00F03052BCA
:1023D000FAD10F4A936843F002039360936803F0C5
:1023E0000C03082BFAD1536C43F480435364536EAF
:1023F00043F480435366536EBDE8F08F194A1A4B7D
:1024000012689A42DBD1164B40F205121A60DAE7E5
:102410000038024000000240000C0240000402406C
:102420000008024000100240001402400018024060
:102430000070004005511564A004802A55555501CF
:1024400050555555085A4007043041440430034460
:10245000002004E000940840030080001164002084
:10246000003C024000ED00E041C20F4100000000CE
:10247000284B1A69904230B40ED00268D0E9014569
:10248000916822602944C2E9014100214FF0FF32E6
:1024900001609A6130BC70471A46016842F8101F0B
:1024A00000254A6005601C6994422CD0A2688168AE
:1024B0004FF0804C1144A160DCF82400DA69841AE2
:1024C000A142E7D91C6A121A0A44A24238BF224626
:1024D0008118CCF83410DCF82410081A824298BF16
:1024E0002046D7D801300A18CCF83420DCF8242054
:1024F000511A81420BD28442CCD2DA6B186242F07C
:102500000102DA63C6E74FF08043DD60C2E711469F
:10251000E8E700BFB809002000000000000000004C
:1025200010B5302386B083F31188144C144AE36845
:102530000121CDE9032368460023059308F048FCF8
:10254000E168206808230B77036823605C6001233F
:102550000377E060FDF7B4FE009B13B16846FFF718
:1025600087FF002383F31188302282F311884FF014
:102570008042506A83F3118806B010BDB80900206C
:1025800051150008000000000000000000000000DD
:10259000174B10B5DA6803F120018A4286B002D2E7
:1025A000511CD9601070302383F31188114C124AEA
:1025B000E3686421CDE9032368460023059308F00E
:1025C00007FCE168206808230B77036823605C60E0
:1025D00001230377E060FDF773FE009B13B16846AB
:1025E000FFF746FF002383F3118806B010BD00BF3C
:1025F000B40A0020B80900205115000800000000AE
:102600000C4A1068D168036810B401245A6004773A
:10261000002413600C770B698C68D0601B689A6883
:10262000A242FBD85A6810BCC1E90032116059605F
:10263000FDF746BEB80900200000000000000000C1
:1026400008B5302383F31188002282F3118883F3C5
:102650001188EFF311825AB9EFF3058283F31188E1
:10266000EFF30583C3F3080333B1002383F3118829
:10267000002383F3118808BD044B1A68DB68926855
:102680009B689A42F1D9FFF7BBFFEEE7B80900203B
:102690002DE9F843294C2A4EE368D3F8088001223B
:1026A000326008EB0205302282F31188DF6C9A68F1
:1026B000974238D0954236D8DD6423689A68E3683B
:1026C0009B689A4201D9FFF79BFF002383F311888F
:1026D000B8452AD1E3689A6895421DD1022232603A
:1026E000302282F31188D3F84C909A68914523D018
:1026F000904521D8DF6423689A68E3689B689A4212
:1027000001D9FFF77DFF002383F311884D450CD1DC
:10271000E3689B68984504D00A4BB36040F201120D
:10272000B280BDE8F8839D60C6E7074BB36040F216
:102730000112B280BDE8F8839F60DBE7B809002092
:10274000B40A0020F4BA0008D0BA00080000000063
:102750002DE9F8433A4D3B4EEB689C68022204F1A8
:1027600002093260C3F8089004F10108302282F3B4
:102770001188DF6C9A68974244D0904542D8C3F8DC
:102780004C802B689A68EB689B689A4201D9FFF7E6
:1027900037FF002383F31188BC4236D1EB689A6877
:1027A000914539D1DA6C90453CD103223260A718AB
:1027B000302282F31188D3F84C909A68914537D033
:1027C000974235D8DF642B689A68EB689B689A4219
:1027D00001D9FFF715FF002383F31188C84514D1F1
:1027E000EA6891688F4217D1D26C974222D10422B5
:1027F0003260302282F31188EA689460D46483F3F3
:10280000118807E0C3F80880B9E70F4BB36040F2C6
:102810000112B280BDE8F8830C4BB36040F20112A4
:10282000B280F7E70A4BB36040F20112B280F1E7E1
:102830009F60C7E7074BB36040F20112B280E9E73F
:10284000B8090020B40A0020D0BA0008F4BA000881
:1028500010BB000838BB00080000000000000000AA
:1028600010B53023044683F3118814490B6873B103
:1028700000200860586318771A6998681268916890
:102880008142FBD25168C3E900210B6053600C4BBD
:102890001A68DB6892689B689A4201D9FFF7B0FE1C
:1028A000002383F31188074BDA6803F120018A4281
:1028B00003D22178501CD860117010BD5817002029
:1028C000B8090020B40A0020000000000000000049
:1028D00008B5302282F311888368002B0CDD084B89
:1028E0001A68DB6892689B689A4201D9FFF788FEF4
:1028F000002383F3118808BDFEF762FEEFE700BFF7
:10290000B8090020000000000000000000000000E6
:102910002F4B70B5DD680C4603F120018D4204D2C7
:1029200061696E1C6131DE602970636A23F00803FF
:1029300063620AB9002070BD302383F31188236AD3
:10294000002B636A3CDB190721D49A0630D4C26994
:1029500000F11401C4E90221D460C46103F0120340
:1029600043F0010363623030FEF72AFE236A01332D
:102970002362184B1A68DB6892689B689A4201D9F7
:10298000FFF73EFE002383F31188002070BDD4E9D9
:102990000031026A0B60596000F11401C4E90212AF
:1029A0000023012194600462C4E904336162DAE720
:1029B000026A00F11401C4E9021294600462CDE7D6
:1029C00003F01A0304F118006362FEF7F9FDD0E783
:1029D000B40A0020B8090020000000000000000038
:1029E0002DE9F84F5B4C5C4B042104F124020120DB
:1029F000C4E90922C4E901310822E062A16304F1BB
:102A0000300056492260C4E90C0000225448E163BA
:102A100004F1140653492061C4E90522266203F13A
:102A200040022164C3E9003308339342FAD14C4B8E
:102A30004D4903F1F00C0127002200E02B4603F181
:102A40003C0503F1180065459960C3E906001F6263
:102A5000DE60CB60C3E90422C3E909721946EDD1F7
:102A6000424B434DE3610223DFF808A1424F2B6044
:102A70004FF000084FF030092AE0236ADBF8041019
:102A8000DBF800200A605160CBE90263C3F808B0AC
:102A90000023C4F820B0CBE904330123CBF8243061
:102AA0005046FEF78DFDDBF820300133CBF82030A7
:102AB0003A68FB6892689B689A4201D9FFF7A0FDCB
:102AC000002383F3118808F10108B8F1080F59D0E9
:102AD000404607F085FE436A834698071BD51907D1
:102AE00020D589F31188DBF82030002BDBF8243067
:102AF00027DB1A07C1D498061BD4E269CBE902266A
:102B0000C2F80CB0C4F81CB003F0120343F0010388
:102B1000CBF82430C4E7194BAB6040F20112AA8015
:102B2000BDE8F88F164BAB6040F20112AA80BDE8F9
:102B3000F88F226ACBE90262C2F808B0C4F820B06C
:102B4000E2E703F01A03CBF824300BF11800FEF78C
:102B500037FDADE770090020040B002011290008A3
:102B60000C0C0020E112000884090020C00C002099
:102B7000B40A0020A0090020B809002058BB0008B2
:102B800064BB0008B149B248FDF742FF8146002806
:102B9000C6D10323DFF8BCA22B60484607F020FE15
:102BA000436A99078346B6D51A0740F13D8143F041
:102BB000080343620146E36B002250469847002811
:102BC00040F03E81DBF824309807A4D513F00808C4
:102BD00040F03081302383F31188DBF82030002B64
:102BE000DBF82430C0F25A81190740F13F81DBE95C
:102BF0000021236A0A605160CBE90263C3F808B080
:102C0000C4F820B0CBE904880123CBF824309248E3
:102C1000FEF7D6FCDBF820300133CBF820303B68E0
:102C20009A68FB689B689A4201D9FFF7E9FC002388
:102C300083F3118809F10109B9F1080FADD1834976
:102C40008648FDF7E5FE00287FF46AAF0423DFF82D
:102C500004922B604FF0010B4FF0300A404607F012
:102C6000BFFD436A014698077FF555AF1A0740F14B
:102C7000DB8043F008034B620122E36B4846984730
:102C8000002840F0DD80404607F0AAFD426A930725
:102C90007FF541AF12F0080240F0CC808AF3118832
:102CA000036A002B436AC0F23181190740F1FF80AB
:102CB000D0E9001C236ACCF80010C1F804C0C0E9B8
:102CC00002639860A36B20620133002BC0E90422E9
:102CD000C0F824B0A36340F3FC80036A01330362AD
:102CE0003B689A68FB689B689A4201D9FFF788FCA9
:102CF000002383F3118808F10108B8F1080FADD162
:102D000052495648FDF784FE814600287FF408AFFB
:102D100005232B604FF0040B4FF0300A584607F0A4
:102D20005FFD436A99077FF5F6AE13F0080840F09F
:102D300081808AF31188036A002B436AC0F22381E1
:102D40001A0740F1EA80D0E90021236A0A60516045
:102D5000C0E9026398602062C0E9048801234362ED
:102D6000A36B0133002BA36340F3F780036A0133A5
:102D700003623B689A68FB689B689A4201D9FFF737
:102D80003FFC89F311880BF1010BBBF1080FC5D192
:102D90002E492F48FDF73CFE814600287FF4C0AE47
:102DA00006232B604FF0300A4FF0010B404607F02E
:102DB00017FD436A9A077FF5AEAE1B0734D58AF339
:102DC0001188036A002B436AC0F20081190740F1A1
:102DD000B780D0E90021236A0A605160C0E902632C
:102DE00098602062C0E90499C0F824B0A36B013355
:102DF000002BA36340F3CE80036A013303623B6878
:102E00009A68FB689B689A4201D9FFF7F9FB89F33E
:102E1000118808F10108B8F1040FC7D1BDE8F84FD7
:102E20000A490B48FDF7F4BD0D4BAB6040F20112AF
:102E3000AA8075E60B4BAB6040F20112AA806FE6E8
:102E4000094BAB6040F20112AA8069E67CBB000826
:102E500010CE000870090020A0090020ACBB0008BB
:102E6000A4BB0008A0BB000890BB00089A060DD4C4
:102E7000E269CBE90226C2F80CB0C4F81CB003F03A
:102E8000120343F00103CBF82430C0E6226ACBE9F9
:102E90000262C2F808B0C4F820B0F0E703F01A03E9
:102EA000CBF824300BF11800FEF78AFBB7E69A0640
:102EB00026D4E269C0E90226D060E06103F0120383
:102EC00043F001034362A36B0133002BA3633FF77D
:102ED00004AF236BDFF804C1196821630022C1F835
:102EE00004C05A631A7799681A691268D2F808C040
:102EF0008C45FAD251681A6059600B605360ECE659
:102F0000226AC0E9026290602062D7E703F01A03E8
:102F100043621830FEF754FBE2E699060AD5226AAE
:102F2000C0E902629060206203F0120343F00103E3
:102F3000436215E7E269C0E90226D060E061F3E789
:102F40009A063DD4E269C0E90226D060E06103F050
:102F5000120343F00103436248E7226B1F491368E1
:102F60002363596011699368C2F8349082F81C9009
:102F70000968D1F808C09C45FAD24B6811605360CB
:102F80001A604A60F2E603F01A0343621830FEF753
:102F900017FBEEE6236B11491A6822635160196929
:102FA0009A68C3F8349083F81C900968D1F808C077
:102FB0009445FAD24A6819605A6013604B601BE767
:102FC000226AC0E9026290602062C0E703F01A033F
:102FD00043621830FEF7F4FA11E700BFA0090020A1
:102FE00070B5174C4B1CE66886B005461AD0154BD9
:102FF0006846CDE903360023059307F0E9FEE16852
:1030000020680D77036823605C6001230377E0602C
:10301000FDF756F9009B13B16846FFF729FA706B6C
:1030200006B070BD206835770368236001225C60BC
:1030300031460277E060FDF743F9706B06B070BD72
:10304000B809002051150008000000000000000031
:103050002DE9F04F83B0D0F81C80019299464FF0D3
:10306000300A8AF3118882B3DDF804B004460F46B3
:10307000A368D4E904609B458CBFA5685D46361AF9
:10308000AE424DD828D232463946FDF763F9AA1B25
:10309000E0680092B919FDF75DF9E368009A1344FE
:1030A0006361A3685B1BA3600DB3B8F1000F01D08F
:1030B0002046C047002383F31188ABEB050B2F4458
:1030C0008AF31188BBF1000FD2D10198002383F35A
:1030D000118803B0BDE8F08F2A463946FDF73AF96A
:1030E000E3686361A3685B1BA360002DDDD1104B17
:1030F000DB68B9F1000F0AD062684946C3E90042B3
:10310000042013606360FFF76BFF0028B0D0019BC1
:10311000A3EB0B00002383F3118803B0BDE8F08F0D
:103120002A463946FDF716F963692B446361B8E70F
:10313000B8090020000000000000000000000000AE
:103140004FF0FF333030FFF783BF00BF00000000B7
:103150003030FFF77DBF00BF00000000000000001E
:1031600070B5302304460D4683F31188164E08E0EF
:103170006268C3E9004213606360FFF731FF002813
:1031800008DBA3682946042043B9F368002DEFD17A
:103190004FF0FF30002383F3118870BDA368A1694D
:1031A000013BA36023694A1C9A4228BFE368A261DD
:1031B0000D7828BFA361E3690BB12046984700232F
:1031C00083F31188284670BDB80900200000000074
:1031D0004FF0FF310C30FFF7C3BF00BF000000000D
:1031E0000C30FFF7BDBF00BF000000000000000072
:1031F0002DE9F04F83B0C769019299464FF0300A2C
:103200008AF31188002A33D0DDF804B004460E4654
:10321000A268A169934522698CBFA5685D46A2EBAF
:103220000108A8454FD82AD2A5EB080342463046EC
:103230000093FDF78FF806EB0800DDF80080E168E9
:103240004246FDF787F8E2684244A261A268521B39
:10325000A260FDB10FB12046B847002383F3118867
:10326000ABEB050B2E448AF31188BBF1000FCFD1D5
:103270000198002383F3118803B0BDE8F08F2A463C
:103280003046FDF767F8E268A261A268521BA260AF
:10329000002DDFD1104BDA68B9F1000F0AD0616858
:1032A0000420C2E900410A6049466260FFF798FEC7
:1032B0000028ADD0019BA3EB0B00002383F3118802
:1032C00003B0BDE8F08F2A463046FDF743F8A26907
:1032D0002A44A261BAE700BFB8090020000000003C
:1032E0004FF0FF330C30FFF783BF00BF000000003A
:1032F0000C30FFF77DBF00BF0000000000000000A1
:103300002DE9F041302304460F46164683F3118819
:10331000DFF8608008E06568C3E900452B60636002
:10332000FFF75EFE002809DBA3683146042053B98D
:10333000D8F80C30002EEED14FF0FF30002383F38D
:103340001188BDE8F0816269A368511C013B61618D
:10335000A3601770D4E904329A4224BFE368636122
:10336000E3690BB120469847002080F31188BDE83F
:10337000F08100BFB809002000000000000000003C
:103380004FF0FF323030FFF7BBBF00BF000000003E
:103390003030FFF7B5BF00BF0000000000000000A4
:1033A0002DE9F843044688469146302383F311887B
:1033B0002D4E00F1180707E0E569C3E900752B60A1
:1033C000E361FFF70DFE88B9237D4946042093B9D8
:1033D000D4E900522369A2EB050CB3EBAC0F11D179
:1033E000F368B9F1000FE7D14FF0FF30002383F30A
:1033F0001188BDE8F8836FF00100002383F3118882
:10340000BDE8F883A068011D8A42226AA16004F128
:103410002001C0F8008003F1010398BFA56091422C
:10342000236110D0136823620020596094681369E7
:10343000506310771B689968A142FBD25968C2E9B2
:1034400000310A605A60084B1A68DB6892689B6812
:103450009A4207D9FFF7D4F80020002383F311889C
:10346000BDE8F8830020C1E7B80900200000000093
:103470002DE9F843254F04468846914600F1200681
:103480000AE023698BB9FB68656AC3E900652B60B4
:103490006362FFF7A5FD30B9237D49460420002B68
:1034A000EFD06FF00100BDE8F883E1680A18096801
:1034B000E260C8F8001061688A4224BF2268E260B6
:1034C000A26904F11801013B9142236110D01368F5
:1034D000A3610020596094681369506310771B68DA
:1034E0009968A142FBD25968C2E900310A605A606A
:1034F000064B1A68DB6892689B689A4204D9FFF70A
:103500007FF80020BDE8F8830020CCE7B809002050
:103510002DE9F041544F554E012382B03B604224C7
:1035200021464FF0FF323046FFF73AFF013405469F
:1035300000283CD1462CF3D102234C483B600122A9
:103540005821FFF72DFF013031D14FF0300888F3BB
:103550001188347D002C7DD1D6E900533269591B86
:10356000B2EBA10F2BD0B068011D8B42B160336A62
:103570003F494FF05804046002F1010298BFB56062
:103580008B42326162D01A683262002051609C68BE
:103590001A695863187712689168A142FBD2516882
:1035A0000020C3E900210B60536080F31188314B88
:1035B000BB6040F20112BA8002B0BDE8F08184F332
:1035C00011880121582007F03BFA0130EFD188F330
:1035D0001188582007F0F4F984F311880130E6D1FE
:1035E00003233B6007F08CFA04233B60347588F3B7
:1035F000118801220DEB03011C48FFF739FF84F30A
:1036000011880130D3D188F31188337D4BBB3269E7
:103610001AB3F1680B1D096801917168F3608B4260
:1036200024BF3368F3601449B369013A8B423261B5
:103630000CD01A68B261002051609C681A69586306
:10364000187712689168A142A9D3FAE7002383F39F
:103650001188ACE785F31188A9E7002383F311886B
:10366000AAE784F31188A2E7B40A00204C080020DE
:103670006C080020B8BB00086408002000000000AF
:103680002DE9F043234DDFF8909083B0302705F10A
:103690001C0887F311884FF0FF3201A94046FFF75D
:1036A000E7FE0023044683F3118810B103B0BDE8A0
:1036B000F083019E3368002BF8D07068984787F339
:1036C0001188D5E902320133002B3260C5E9023698
:1036D0000DDDD9F80020D9F80C3092689B689A4229
:1036E00001D9FEF78DFF002383F31188D1E72B6802
:1036F0001A682A60556098681A695C631C771268BA
:1037000091688142FBD251681A6059600B60536026
:10371000DFE700BF880B0020B80900200000000090
:1037200010B53023044683F311888268531E002BA2
:10373000836007DBE068C8B10368E360002383F3BC
:10374000118810BD0846D9B10E4B6268DB680520B0
:10375000C3E900425C6313606360FFF741FC00282B
:10376000E8D00020002383F3118810BDA369002B4B
:10377000F7D0D4E904019847002383F3118810BDE2
:10378000A260DBE7B8090020000000000000000094
:103790002DE9F0474F4F504D504CDFF84491012335
:1037A0003B604FF0040A4FF03008002610E0D9F8D3
:1037B0000020D9F80C3092689B689A4201D9FEF734
:1037C0001FFF86F311882369BAF1010A1D441BD03B
:1037D00088F31188D4E902320133002BC4E90235A1
:1037E0002A60E4DC226813689068116923605C60D9
:1037F0005663167709688B688342FBD24B68C2E92F
:1038000000131A604A60D2E70223344E3B6004255D
:1038100000213046FFF784FF002842D0013DF7D158
:1038200003232E483B602946FFF77AFF90BBDFF861
:10383000A8A004233B600AF110083026514686F305
:103840001188D4E902320133002BC4E902314AF86D
:10385000042B2DDDD9F80020D9F80C3092689B6834
:103860009A4201D9FEF7CCFE85F31188D045E5D107
:1038700005231A4D3B60042400212846FFF750FF22
:1038800078B1013CF8D1062314483B602146FFF78C
:1038900047FF58B1134BBB6040F20112BA80BDE83C
:1038A000F087114BBB6040F20112BA80BDE8F0878F
:1038B00022681368116990685C602360556315770E
:1038C00009688B688342FBD24B68116053601A60B1
:1038D0004A60BFE7B40A0020FC0C0020100800205A
:1038E000B8090020ECB90008E0B9000800000000A9
:1038F00010B5084C084801234FF47A712360FFF794
:103900000FFF00B910BD054BA36040F20112A28069
:1039100010BD00BFB40A002010080020ECB9000858
:1039200070B5484C012386B02360EFF311836BB967
:10393000EFF30583302383F31188EFF30583C3F39B
:103940000803002B73D0002383F311880223236024
:10395000302383F31188EFF3118262B9EFF305820C
:1039600083F31188EFF30583C3F30803002B54D0CE
:10397000002383F31188002383F31188032323603A
:10398000EFF3118313B9302383F31188EFF311831D
:1039900013B9302383F31188002383F311880422A1
:1039A0002260302282F31188EFF311820AB183F38F
:1039B0001188EFF3118313B1002383F311880522DB
:1039C000002300932260302383F31188009B6E460E
:1039D00013B13046FEF74CFD1B4B0025012130464C
:1039E000CDE90335059507F0F3F985F31188302605
:1039F00086F311880A210820FFF7F2FA85F311886F
:103A000086F31188009B85F3118823B10F4BA360C7
:103A100040F20112A28006B070BD0D4B1A68DB683F
:103A200092689B689A42A3D9FEF7EAFDA0E7084B8B
:103A30001A68DB6892689B689A4284D9FEF7E0FDB9
:103A400081E700BFB40A002041260008D0BB00086F
:103A5000B809002000000000000000000000000085
:103A60002DE9F84FDFF890A00121CAF800104FF0BF
:103A7000300989F31188214E4FF080474FF000083C
:103A8000786AD6E90A23801A841843F10005C6E94A
:103A90000A4588F3118889F311880820FFF7A0FAF6
:103AA00088F3118889F31188D7F824B088F3118836
:103AB00042F20F7E04E07B6AA3EB0B03734519D837
:103AC00089F311887B6AD6E90A011B1AA4461C18DF
:103AD0002A4641F10005C6E90A4588F31188644584
:103AE00075EB0203E7D2064BCAF8083040F2011228
:103AF000AAF80420BDE8F88FB40A0020B809002015
:103B0000E4BB00080000000000000000000000000E
:103B10002DE9F041374D01234FF080442B60D4F85C
:103B20002480302686F3118864210820FFF758FA94
:103B3000002787F31188636A643BA3EB0803022B19
:103B400051D802232B60D4F8248086F311884FF4D7
:103B50007A710820FFF744FA87F31188636AA3F5A6
:103B60007A73A3EB0803022B3DD803232B60D4F810
:103B7000248086F311884FF47A710820FFF730FA19
:103B800087F31188636AA3F57A73A3EB0803022B0A
:103B900029D804232B60D4F8248086F3118842F2BC
:103BA00010710820FFF71CFA87F31188636AA3F5E8
:103BB0001C53103BA3EB0803022B14D805232B60E6
:103BC000676A643786F31188616A791A02D008201F
:103BD000FFF706FA002383F311884FF080435B6AF6
:103BE000DF1B022F04D9044BAB6040F20112AA8004
:103BF000BDE8F081B40A0020F4BB0008000000001A
:103C000010B5302484F311884FF4FA710820FFF7BF
:103C1000E7F9002181F3118884F31188124A93682F
:103C200001338B4293600CDD104B1A68DB6892689D
:103C30009B689A4201D9FEF7E3FC002383F31188C5
:103C400010BD13681C681869146062609C68596331
:103C5000197700688268A242FBD24268C3E9000279
:103C600013604360E0E700BF0C0D0020B80900209E
:103C700038B50446302585F311884FF4FA710820D1
:103C8000FFF7AEF9002383F3118885F31188636C85
:103C9000227F43F001030A2A636421D00B2A0CD04F
:103CA000114B1A68DB6892689B689A4201D9FEF74B
:103CB000A7FC002383F3118838BD626B32EA03034B
:103CC000EED100222369A168626322771B689A689B
:103CD0008A42FBD25A68C4E9003214605C60DFE7B4
:103CE000626B1342EDD1DBE7B80900200000000051
:103CF00070B5302383F31188154C16480021FDF769
:103D0000B7FC2268E36892689B689A4201D9FEF783
:103D100077FC002585F31188302686F311884FF44F
:103D2000FA710820FFF75CF985F3118886F3118892
:103D300009482946FDF79CFC2268E36892689B6865
:103D40009A4201D9FEF75CFC002383F3118870BD11
:103D5000B8090020080800200C080020000000001E
:103D6000F8B5464C464D01232360E968302383F3C0
:103D700011884B6C002B43D183F31188E968302202
:103D800082F311884B6C002B4AD183F31188E968C8
:103D900082F31188486C013058D083F311880223D4
:103DA000EF68236082F311887E6C002E42D073424C
:103DB00026EA03027A641E40002383F311884EBB77
:103DC000EE68302383F31188776C002F40D00023F6
:103DD000736483F31188EFB9ED68302383F311889E
:103DE0006B6C013309D04FF0FF336B634FF4FA7102
:103DF0000B20FFF7F5F800283CDB00236B6411E093
:103E00005A4223EA020048641340002282F31188D8
:103E1000002BB3D01B4BA36040F20112A280F8BD6F
:103E200000234B6483F31188164BA36040F2011208
:103E3000A280F4E74FF0FF337B634FF4FA710A205E
:103E4000FFF7CEF800280FDB7E6CB0E74B64E9E7A4
:103E50004FF0FF3373634FF4FA710A20FFF7C0F895
:103E6000002804DB776CB2E786F31188A8E787F3B4
:103E70001188B1E7002383F31188F8BDB40A00204C
:103E8000B809002008BC0008000000000000000085
:103E90002DE9F84F0546302686F3118801210820C8
:103EA000FFF79EF84FF0000A8AF3118886F3118815
:103EB0004FF08043D3F824908AF31188204C05F109
:103EC0003C084FF0010B574618E0E16820680C23CE
:103ED0000B77036823605C6080F81CB0E060FCF73F
:103EE000EFF987F311884FF0804342F20F725B6A5B
:103EF000A3EB090393420AF1010A19D8E36886F398
:103F000011882A6CC3F834B0C3E9008213602A7F99
:103F10002B640E2AD9D12B69A9682F771B689A6860
:103F20008A42FBD25A682B606A6015605D60CCE7FC
:103F300000212846FDF784FC5046BDE8F88F00BFFD
:103F4000B809002000000000000000000000000090
:103F500010B4154C8268E368416399688A4215D9A8
:103F600000221A771A691268D2F808C06145FAD39C
:103F700051684FF0010CC3E900210B6053601946F2
:103F8000E06080F81CC010BCFCF79AB900210369FE
:103F900001771B6899688A42FBD95A6810BCC0E94E
:103FA0000032106058607047B8090020000000001F
:103FB000F8B53B4D01222A60302686F31188394C32
:103FC000A368013B002BA36044DB002383F311882B
:103FD00086F31188A36823BB83F3118802232B6027
:103FE000302383F31188A3680133002BA36021DD04
:103FF000002686F31188302787F31188A368012BE8
:1040000020D186F31188032326482B60022106F075
:1040100077FE87F31188A368022B13D186F31188EA
:10402000F8BD214BAB6040F20112AA80002383F35C
:104030001188F8BD20680368236000215C60FFF7E9
:1040400087FFD5E7184BAB6040F20112AA8086F3D8
:104050001188F8BD154B6168DF6818687C63C7E993
:1040600000410F60052139770168676019604B6076
:1040700002773946D860FCF723F97A6B002383F383
:10408000118886F31188A368002BCAD183F31188A5
:10409000002AA3D0064BAB6040F20112AA80F8BD03
:1040A000B40A00200C0D002018BC0008B80900203C
:1040B0002CBC000800000000000000000000000010
:1040C00010B5302383F31188194CA368013B002BF2
:1040D000A36018DB002181F31188302383F311885A
:1040E000A36801338B42A36003DD002383F31188AF
:1040F00010BD2068036823605C60FFF729FF002380
:1041000083F3118810BD0B4B6268D9680520C1E9A3
:1041100000424C63116008771868616002681A6099
:10412000536001220277D860FCF7CAF8D2E700BFDB
:104130000C0D0020B8090020000000000000000065
:104140002DE9F047184F30264FF00E094FF00108C7
:104150000FE00368EB630D225C6002778AF311883D
:10416000446B86F311882146FFF7F2FE8AF311882B
:10417000BCB186F31188FD682C464FF0000A54F854
:104180003C0FA042E5D1386885F81C9003683B607D
:104190005F60294680F81C80F860FCF791F8E86BB6
:1041A000D7E7BDE8F08700BFB80900200000000095
:1041B000836870B40021446843F84C4C0222C46800
:1041C00003F8431C03F8442C826943F8584C43F825
:1041D000144C012403F8424C046843F8404CA3F10A
:1041E000840443F8544CD0E9044043E92140144C82
:1041F000144D43F8645C002A08BF224643E90D11C0
:1042000043E90711A3F1240143F8201C546B43F840
:10421000241CA3F12805A3F13C0102F1300643F868
:104220003C6C43F8285C43F8384C43F8483C43F86E
:10423000502CA3F160002160516370BC704700BF37
:10424000B8090020D10200080000000000000000B2
:1042500070B53E4B3E4D3F4ADB688CB00121296072
:104260003D499B68059102F50871CDE906213B4A5D
:1042700000260133CDE908320B960A96302383F3EA
:10428000118805A8FFF794FF31460446FFF760FE4A
:1042900086F311880223324A32492B602046FDF70B
:1042A00027FC45F2AA53984248D12F4A2F4941236F
:1042B0002046FDF71DFC412840D1432300932C4AA2
:1042C0002C4942232046FDF713FC422836D14621D3
:1042D0004523CDE90031284A284944232046FDF7EB
:1042E00007FC44282AD14A2149224823CDE901214B
:1042F0000093234A234947232046FDF7F9FB47282B
:104300001CD1214A17492046FDF7F2FB4AF65523F6
:10431000984213D11D491E48FCF77AFB98B9032334
:1043200020462B60FDF7DCF940F6A57398420AD0D1
:10433000184BAB6040F20112AA8004E0164BAB6050
:1043400040F20112AA800CB070BD00BFB809002075
:10435000B40A0020E01B002044BC0008315C0008C7
:10436000B111000831090008D11100084109000805
:10437000F1110008610900082112000881090008F4
:1043800061120008A1090008B11200087CBB0008F6
:1043900068BC000878BC000850BC000800000000A1
:1043A0002DE9F04F674F684C684EDFF8A491012368
:1043B0004FF0000A04253B600823C4E903A3C4E9C5
:1043C000055AC4E900448FB0C4F808A04FF0300883
:1043D0000FE0D9F80020D9F80C3092689B689A4217
:1043E00001D9FEF70DF98AF311882369013D1E44B6
:1043F0001DD088F31188D4E902320133002BC4E9BF
:1044000002363260E5DC2268136890681169236027
:104410005C60C2F834A082F81CA009688B688342F3
:10442000FBD24B68C2E900131A604A60D1E7494BDE
:10443000E361C4E9093310332362D9F80C30DFF8A3
:1044400018B19B68454EE562013B0A93444B0893C3
:1044500003F5087309930BF10803C4E90F33022332
:104460003B60404B84F83050C4E90DBBCDE90C559E
:1044700007930B96302484F3118807A8FFF798FE62
:1044800029468046FFF764FD85F31188D9F80C3082
:1044900005959B680496023B0393334B019303F508
:1044A00008730293314B0695009384F31188684694
:1044B000FFF77EFE29460646FFF74AFD85F3118881
:1044C00003232B4C3B60ABF134054FF0610AABF199
:1044D000180B4FF0FF312846FFF722F90022C0E900
:1044E000004A01460AF1010A5846FEF759FFBAF19F
:1044F000690FEED104234FF0FF3113483B60FFF703
:104500000FF900242246C0E9004401461948FEF78D
:1045100047FF4FF0FF310C48FFF702F922460146F2
:10452000C0E900441348FEF73BFF4046FDF7D8F8CA
:104530003046FDF7D5F8104910480FB0BDE8F04FF0
:10454000FCF766BAB40A0020880B0020680B002034
:10455000B8090020EC0B0020BC0B002081360008BD
:10456000A01700208CBC0008C019002098BC0008CF
:1045700091250008A40B00207CBB0008ACBB000800
:1045800070B54418049944F84C0C234844F8801C36
:1045900044F8640C214944F8843CA4F12800022327
:1045A000002544F8582C04F8443C44F8280CA4F1A5
:1045B000240344F8501C44F8142C194944F8484C7E
:1045C000A4F18402012044E9093304F8435C44E97E
:1045D0000D5504F8420C44E9075544F8401C44F8D2
:1045E000542C3023A4F1600683F3118854F8503C16
:1045F000596B44F8381CA4F13C0203F1300044F834
:104600003C0C0A60304629465A63FFF7A1FC85F34B
:104610001188304670BD00BFD1020008B8090020E3
:10462000A4BC000800000000000000000000000022
:104630002DE9F04F814DDFF808A2EB6881489A68B8
:10464000814B824C83B00121CAF80010804900914F
:10465000053A4FF4F071FFF793FFEB6820609A681A
:104660007C4B0093043A784B7B484FF4F071FFF792
:1046700087FFEB6860609A68784B0093033A724B4F
:1046800077484FF4F071FFF77BFFEB68A0609A6802
:10469000744B0093023A6C4B73484FF4F071FFF780
:1046A0006FFFEB68E0609A68704B00937048664B50
:1046B000013A4FF4F071FFF763FF04F11406206133
:1046C0002746A1464FF0000859F8040B18B1FDF732
:1046D00007F849F8048CB145F6D166496648FCF7FD
:1046E00097F9804610B103B0BDE8F08FEB686048E1
:1046F0009A685E4B00934FF0020C534BCAF800C00F
:10470000013A4FF4F071FFF73BFFEB6838619A68AC
:10471000544B0093023A4C4B5348DFF860B14FF4CE
:10472000F071FFF72DFFEB68F8609A684B4B009330
:10473000033A454B4A484FF4F071FFF721FFEB680D
:10474000B8609A68434B0093043A3F4B42484FF499
:10475000F071FFF715FFEB6878609A683C4B0093A7
:104760003848394B053A4FF4F071FFF709FF3860CC
:10477000ABF11007B94618B1FCF7B2FFC9F80080D9
:10478000D94502D059F8040FF5E73A493A48FCF701
:104790003FF980460028A6D1EB682F489A682D4B38
:1047A00000934FF0030C284BCAF800C0043A4FF4B2
:1047B000F071FFF7E5FEEB6878609A68244B009390
:1047C000053A214B1F484FF4F071FFF7D9FEEB6813
:1047D00038609A68254B0093013A1B4B24484FF4EC
:1047E000F071FFF7CDFEEB6838619A681D4B0093BE
:1047F000023A154B1C484FF4F071FFF7C1FEEB680D
:10480000F8609A68154B009315480F4B033A4FF424
:10481000F071FFF7B5FE4546B86054F8040B18B1C7
:10482000FCF75EFF44F8045CB442F6D1114912482B
:1048300003B0BDE8F04FFCF7EBB800BFB8090020AB
:10484000B40A0020400D0020E10B000844170020AE
:10485000B0BC00083CBA0008200F002030BA0008A5
:104860000011002024BA0008E012002018BA000845
:10487000C0140020C8B90008ACBC000854170020C0
:104880002DE9F043384DDFF8E480EB6838499A6849
:104890003848394B394C83B04FF001090091013A47
:1048A0004FF4F071C8F80090FFF76AFE30232060E3
:1048B00083F31188EE682868314F03233377036848
:1048C0002B60776331465D6080F81C903E60E86045
:1048D000FBF7F6FC766B002383F311883B688BBBF8
:1048E00036BB04F1140954F8040B18B1FCF7F8FEB8
:1048F00044F8046CA145F6D10223C8F800303023F7
:1049000083F311884FF08044EA68656A5763642135
:1049100003203A60FEF764FB002383F31188636A87
:10492000643B5B1B022B17D83B685BB9013010D08E
:10493000144BC8F8083040F20112A8F8042003B064
:10494000BDE8F083104BC8F8083040F20112A8F817
:10495000042003B0BDE8F0830C4BC8F8083040F2E7
:104960000112A8F80420F4E7B8090020B40A0020D6
:1049700018BA0008400D00206128000844170020E4
:10498000581700202CBC0008B4BC0008F4BB000879
:1049900070B5594D594EEB6859489A68594B5A4C65
:1049A00082B0012100900532316058484FF4F07117
:1049B000FFF7E6FDEB6820609A68554B00930132E3
:1049C000504B54484FF4F071FFF7DAFDEB6860602C
:1049D0009A68514B009303324A4B50484FF4F071A0
:1049E000FFF7CEFDEB68A0609A684D4B0093043250
:1049F000444B4C484FF4F071FFF7C2FDEA684A4B54
:104A0000926800930232E0603E4B48484FF4F071E8
:104A1000FFF7B6FD022333602061302383F3118852
:104A2000434CA3680133002BA36041DD002181F3D7
:104A30001188302383F31188A36801338B42A3606C
:104A400053DD002181F31188302383F31188A3689B
:104A500001338B42A36041DD002181F311883023B3
:104A600083F31188A36801338B42A3602FDD0021FB
:104A700081F31188302383F31188A36801338B42BB
:104A8000A3601DDD002686F311881F4C04F1140578
:104A900054F8040B18B1FCF723FE44F8046CA5424B
:104AA000F6D12449244802B0BDE87040FBF7B0BFFE
:104AB00020680368236000215C60FFF749FAB5E7CE
:104AC0002068036823605C60FFF742FADAE7206839
:104AD000036823605C60FFF73BFAC8E7206803685F
:104AE00023605C60FFF734FAB6E720680368236050
:104AF0005C60FFF72DFAA4E7B8090020B40A002093
:104B000018BA0008E118000844170020400D0020E2
:104B100024BA0008200F002030BA0008001100203D
:104B20003CBA0008E0120020B0BC0008C01400200D
:104B30000C0D0020C8B90008ACBC00080000000043
:104B40002DE9F047604D012382B02B60302686F3BB
:104B500011885E4CA268531E002BA3600ADB002361
:104B600083F311885A4BAB6040F20112AA8002B065
:104B7000BDE8F087A260002383F311882368A34275
:104B800050D1A768002F55D1DFF848815248D8F896
:104B90000C209268009702232B60013A4F4B4FF490
:104BA000F071FFF7EDFC4E4B186086F31188A36897
:104BB000013B002BA36045DB4FF0000A8AF311880C
:104BC000474E06F1140956F8040B18B1FCF788FD9E
:104BD00046F804ACB145F6D1F7B92368A34221D118
:104BE000A3683BBB03232B60FDF79AFCDFF8F4A01E
:104BF000074641264FF03009EB68534502D25A1C54
:104C0000EA601E7089F31188A368013B002BA36042
:104C100027DB002383F311882D4BAB6040F2011298
:104C2000AA80A4E7304BAB6040F20112AA8002B028
:104C3000BDE8F0872D4BAB6040F20112AA8002B0B4
:104C4000BDE8F087D8F80C3062685C63C3E90042C5
:104C500041F28831136005206360FEF7C1F9074611
:104C6000AAE7D8F80C3062681C605A605C634FF4A5
:104C7000FA71136005206360FEF7B2F9002383F335
:104C800011880130C8D123680136A342F6B2C9D1D8
:104C9000A368002BCED1462EAED115491548FBF79F
:104CA000B7FE00287FF463AF4FF080435B6AA3F642
:104CB000C413DF1B132F7FF65AAF0F4BAB6040F2CC
:104CC0000112AA8053E700BFB40A00200C0D002097
:104CD000B8BB0008B8090020400D0020013C0008C6
:104CE00044170020D40A0020C0BC0008D0BC000833
:104CF000C8B90008ACBC0008F4BB00080000000004
:104D00002DE9F041354F364EFB6836489A68364BF0
:104D100082B00121009031600A4434484FF4F071B0
:104D2000FFF72EFC324A022333601060302383F3F6
:104D30001188304DAB684FF0000C981C01E08342A5
:104D400018D00133002BFADC2A6814681169D2F8F4
:104D500008E02C60656082F81CC009688C687445A6
:104D6000FBD24C688342C2E9001422604A60C2F858
:104D700034C0E6D13968FA6889689268AB609142BC
:104D800001D9FDF73DFC4FF0000888F31188184C5D
:104D900004F1140754F8040B18B1FCF7A1FC44F813
:104DA000048CBC42F6D1302383F31188AB68012B0D
:104DB00009D1002383F311880F490A4802B0BDE8E6
:104DC000F041FBF725BE0D4BB36040F20112B280FB
:104DD000002383F3118802B0BDE8F081B8090020F8
:104DE000B40A002018BA0008E1180008400D00209D
:104DF000441700200C0D0020C8B90008E4BC0008CE
:104E000030B5194B194CDB6883B09A68184B0025F4
:104E1000012001324FF4F071009520601548FFF732
:104E2000AFFB154A02231060236006F049FD134BC7
:104E30001D689D4211D1AB6843B90323236006F07E
:104E40003FFD2B68AB4208D19B6823B10C4BA3609C
:104E500040F20112A28003B030BD0A4BA36040F2C1
:104E60000112A28003B030BDB8090020B40A0020AE
:104E7000C1400008400D0020441700200C0D002008
:104E8000D0BC0008C0BC000800000000000000000A
:104E90002DE9F047794C86B003AE4FF001080025AC
:104EA000CDE90366C4F800800595302787F31188A3
:104EB000059BAB427ADC85F31188022329463046F4
:104EC000236005F01DFF87F31188059BAB426DDC65
:104ED00085F31188DFF8A8916A4BD9F80C206A484D
:104EE0009268009603212160013A4FF4F071FFF7B8
:104EF00047FB664B18600423236087F31188059BEA
:104F0000013B002B05936EDB85F3118887F3118835
:104F1000059B002B54DC85F3118805232360302387
:104F200083F31188059B002B40F39780D9F800206C
:104F3000D9F80C3092689B689A4201D9FDF760FB62
:104F4000002383F31188302282F311880599994256
:104F500041DD83F3118882F311880599012974D109
:104F600083F311880623236082F31188059B002BAD
:104F70007FDDD9F80020D9F80C3092689B689A42FE
:104F800001D9FDF73DFB002383F31188302282F322
:104F900011880599994264DD83F3118882F31188A1
:104FA000059A012A51D183F3118806E0384BA3609A
:104FB00040F20112A28085F3118806B0BDE8F087A7
:104FC000334BA36040F20112A280002383F31188C7
:104FD00006B0BDE8F0872F4AA26040F20111A1801F
:104FE00083F31188E9E7D9F80CA0049BCAF80060A4
:104FF000CAF80430D9F80000CAF83460C3F800A039
:1050000005238AF81C300368CDF810A05146C3F878
:10501000049080F81C80C9F80030C9F80C00FBF738
:105020004FF9DAF8342085F3118887F31188059B4E
:10503000002BC5DC85F31188002A3FF46EAF164BB8
:10504000A36040F20112A280B7E7144AA26040F2C6
:105050000111A18083F31188AFE73046FCF7B0FA65
:1050600064E70F4AA26040F20111A18083F3118826
:10507000A3E73046FCF7A4FA7BE700BFB40A0020A0
:10508000B8090020D1280008400D00204417002056
:10509000F4BC000814BD000800BD000820BD0008D5
:1050A000F8BC000800000000000000000000000044
:1050B000F0B55F4D5F4FEB685F499E685F48604B9E
:1050C000604C83B0012200913A604FF4F071B21845
:1050D000FFF756FA5C4B2060B21C00934FF4F0715E
:1050E000574B5A48FFF74CFA594B6060F21C00933B
:1050F0004FF4F071524B5748FFF742FA564BA060FD
:10510000321D00934FF4F0714D4B5448FFF738FABD
:10511000534BE060721D00934FF4F071484B5148BF
:10512000FFF72EFA02233B602061302383F31188BE
:105130004D4B1A689A425CD0116896684B6000200B
:10514000506310771069196000688468B442FBD21C
:1051500044681060994254602260426049D00A68F5
:105160008E68536000204863087708691A600068F9
:105170008468B442FBD2446808609A424C60216063
:10518000416036D0116896684B60002050631077FC
:105190001069196000688468B442FBD244681060EA
:1051A000994254602260426023D00A688E6853603E
:1051B00000204863087708691A6000688468B44270
:1051C000FBD2446808609A424C602160416010D074
:1051D000106818604360002113699068516311776B
:1051E0001B6899688142FBD25968C2E900310A60A4
:1051F0005A602A68EB6892689B689A4201D9FDF769
:10520000FFF9002686F311880E4C04F1140554F8BA
:10521000040B18B1FCF764FA44F8046CA542F6D10B
:105220001249134803B0BDE8F040FBF7F1BB00BFE3
:10523000B8090020B40A0020B0BC0008400D0020CE
:1052400021600008441700203CBA0008200F00200D
:1052500030BA00080011002024BA0008E012002033
:1052600018BA0008C014002000080020C8B90008BF
:10527000ACBC0008000000000000000000000000BE
:10528000F0B53C4E3C4FF3683C499D683C483D4B73
:105290003D4C83B0012200913A604FF4F071AA189E
:1052A000FFF76EF9394B2060AA1C00934FF4F071A0
:1052B000344B3748FFF764F9364B6060EA1C0093C3
:1052C0004FF4F0712F4B3448FFF75AF9334BA0607D
:1052D0002A1D00934FF4F0712A4B3148FFF750F923
:1052E000304BE0606A1D00934FF4F071254B2E485F
:1052F000FFF746F902233B602061302383F31188D6
:105300002A480168814217D04FF0000C6FF0010766
:105310000B4609681A699D680160486083F81CC0E3
:1053200012689468AC42FBD254688142C3E90024FD
:10533000236053605F63EBD13268F36892689B68C7
:105340009A4201D9FDF75CF9002686F311880E4CCC
:1053500004F1140554F8040B18B1FCF7C1F944F832
:10536000046CA542F6D11249124803B0BDE8F040E2
:10537000FBF74EBBB8090020B40A0020B0BC0008FF
:10538000400D002021600008441700203CBA0008AE
:10539000200F002030BA00080011002024BA0008B5
:1053A000E012002018BA0008C014002000080020F5
:1053B000C8B90008ACBC00080000000000000000F4
:1053C00070B5304B304DDB6830489E68304B314C07
:1053D00082B002210090721C29602F484FF4F071B6
:1053E000FFF7CEF82D4A009203232B602060B21CF9
:1053F0002B4B2C484FF4F071FFF7C2F82A4A009269
:1054000004232B606060294B2948F21C4FF4F07193
:10541000FFF7B6F805232B60A060302383F31188D3
:10542000244C2068A04205D00368236000215C6002
:10543000FEF78EFD002181F3118806232B603023B7
:1054400083F311882068A04204D0036823605C6065
:10545000FEF77EFD002686F311880E4C07232B6095
:1054600004F1140554F8040B18B1FCF739F944F8A9
:10547000046CA542F6D11049104802B0BDE8704056
:10548000FBF7C6BAB8090020B40A002018BA000811
:10549000C160000844170020400D002030BA000809
:1054A00021600008200F002024BA00088161000854
:1054B0000011002000080020C8B90008DCB900086D
:1054C0002DE9F04F304F314EF968314B8A68314841
:1054D00085B04FF0010900914A44C6F800904FF49E
:1054E000F071FFF74DF82C4BB0461860022348F8D6
:1054F000203B4FF0040B302585F31188F9680C46EA
:105500004FF0000A54F83C0FA0422DD00268CA6345
:105510004FF00D0C546080F81CC08AF31188446B66
:1055200085F311882146FEF713FD8AF31188F3688D
:10553000434502D25A1CF2601C70BBF1010BDBD157
:10554000154C5D4604F1140654F8040B18B1FCF731
:10555000C7F844F8045CA642F6D11049104805B0DB
:10556000BDE8F04FFBF754BA386803914FF00E03D3
:105570000B7702683A60576080F81C90F860FAF781
:105580009FFE0399C86BC1E7B8090020B40A002048
:10559000B1180008400D002044170020C8B90008C9
:1055A0006CBA0008000000000000000000000000CD
:1055B0002DE9F0433C4C012383B02360302787F36F
:1055C00011883A4EF268536C43F007035364002588
:1055D00085F311880223236005F06AFB012849D175
:1055E00005F066FB022845D105F062FB04288046E1
:1055F00040D187F31188F368D3F844905D6485F354
:105600001188B9F1000F3DD103232360FCF788FF17
:10561000F168274B8A6800910546013A4FF4F07112
:105620002448FEF7ADFFC4F80080DFF88C80C8F88E
:10563000000005F03DFB4FF080435B6AA3F5FA7371
:105640005B1B132B2AD8012822D187F31188F3681A
:105650005D6CC3F8449089F311889DB908F1140476
:1056600058F8040B18B1FCF73BF848F8045C4445C3
:10567000F6D104E0114BA36040F20112A28003B006
:10568000BDE8F0830E4BA36040F20112A280F6E762
:105690000C4BA36040F20112A280F0E70A4BA3601A
:1056A00040F20112A280EAE7B40A0020B809002003
:1056B000713C0008400D00204417002034BD000854
:1056C00048BD000854BD0008F4BB000800000000FD
:1056D0002DE9F041534D012782B02F60302282F333
:1056E0001188514CE1684B6C43F0050300204B647A
:1056F00080F311880223E6682B6082F31188726CB4
:10570000002A57D00023736483F31188052A49D1F6
:10571000302686F31188E268516C536483F3118854
:10572000002957D103232B60FCF7FAFEE3689A683F
:10573000009307463D4B3E48013A4FF4F071FEF7A7
:105740001FFF3C4BD4F80C80186004232B6086F3B9
:105750001188D8F84420002A4AD00021C8F8441003
:1057600081F311884FF080435B6AA3F5FA73D81B6D
:10577000132837D8012A4ED1302383F31188E368E8
:105780005E6C596481F3118826BB2A4C04F1140520
:1057900054F8040B18B1FBF7A3FF44F8046CA542BE
:1057A000F6D104E0244BAB6040F20112AA8002B0B3
:1057B000BDE8F081E16820684FF0FF3373630A238E
:1057C0000B77036823605C600777E060FAF778FD89
:1057D000726C97E7194BAB6040F20112AA8002B0DD
:1057E000BDE8F081164BAB6040F20112AA80DEE703
:1057F000E16820684FF0FF33C8F834300A230B7794
:10580000036823605C6001230377E060FAF758FDCA
:10581000D8F84420A1E70B4BAB6040F20112AA80FC
:10582000C5E700BFB40A0020B8090020713C000899
:10583000400D00204417002068BD000848BD000846
:10584000F4BB000854BD0008000000000000000088
:105850002DE9F041524D012782B02F60302282F3B2
:105860001188504CE1684B6C43F0050300204B64F9
:1058700080F311880223E6682B6082F31188736C31
:1058800003F00502052A0DD0E16820680523736343
:105890000B230B77036823605C600777E060FAF7FF
:1058A0000FFD736C23F005037364002383F31188E9
:1058B000302686F31188E268516C536483F31188B3
:1058C000002965D103232B6086F31188E268536CAD
:1058D00043F00403536481F3118804232B60FCF725
:1058E0001FFEE3689A68009307462F4B2F48013A42
:1058F0004FF4F071FEF744FE2D4BD4F80C80186085
:1059000005222A6086F31188D8F8443003EA0201A0
:10591000914224D123F00503C8F84430002383F3D7
:1059200011884FF08042506AA0F5FA70C71B132F00
:1059300026D8302282F31188E268566C536483F3D0
:1059400011882EBB1A4C04F1140554F8040B18B13D
:10595000FBF7C6FE44F8046CA542F6D115E0E168F9
:105960002068C8F834200B230B77036823605C6041
:1059700001230377E060FAF7A3FCD8F84430C9E7C5
:105980000C4BAB6040F20112AA8002B0BDE8F0817E
:10599000094BAB6040F20112AA8002B0BDE8F08171
:1059A000B40A0020B8090020713C0008400D002016
:1059B00044170020F4BB000848BD000800000000A8
:1059C0002DE9F04FDFF8BC814FF001098FB0C8F826
:1059D0000090302585F311886B4E6C4C3268E3687B
:1059E0000A930DF1240B002309924FF0FF32CDF8FA
:1059F0002C900C93C6F800B00D9283F3118885F3B8
:105A00001188634FCDE90732E26805923A68049243
:105A10000DF1100A0422C7F800A0069283F3118842
:105A20000222C8F8002085F3118808204946FDF7B6
:105A3000D7FA002383F3118885F311884FF0804251
:105A4000526A029283F31188E36852489A68524B73
:105A50000093013A514B4FF4F071FEF791FD504B1A
:105A6000E26818600323C8F8003085F31188536C8E
:105A700003F00501052910D0E16820680392052391
:105A800053630B230B77036823605C6080F81C90E2
:105A9000E060FAF715FC039A536C23F00503536496
:105AA000002282F311884FF0804302995B6AA3F5CC
:105AB000FA735B1A132B44D8302383F31188E368FD
:105AC0005D6C5A6482F31188002D44D1344C04F18A
:105AD000140954F8040B18B1FBF702FE44F8045CF7
